{
  "_format": "hh-sol-artifact-1",
  "contractName": "NFTMarketplace",
  "sourceName": "contracts/NFTMarketplace.sol",
  "abi": [
    {
      "inputs": [],
      "name": "NotApproved",
      "type": "error"
    },
    {
      "anonymous": false,
      "inputs": [
        {
          "indexed": true,
          "internalType": "address",
          "name": "buyer",
          "type": "address"
        },
        {
          "indexed": true,
          "internalType": "address",
          "name": "nftAddress",
          "type": "address"
        },
        {
          "indexed": false,
          "internalType": "uint256",
          "name": "price",
          "type": "uint256"
        },
        {
          "indexed": false,
          "internalType": "uint256",
          "name": "fraction",
          "type": "uint256"
        }
      ],
      "name": "LogItemBought",
      "type": "event"
    },
    {
      "anonymous": false,
      "inputs": [
        {
          "indexed": true,
          "internalType": "address",
          "name": "seller",
          "type": "address"
        },
        {
          "indexed": true,
          "internalType": "address",
          "name": "nftAddress",
          "type": "address"
        }
      ],
      "name": "LogItemCanceled",
      "type": "event"
    },
    {
      "anonymous": false,
      "inputs": [
        {
          "indexed": true,
          "internalType": "address",
          "name": "seller",
          "type": "address"
        },
        {
          "indexed": true,
          "internalType": "address",
          "name": "nftAddress",
          "type": "address"
        },
        {
          "indexed": false,
          "internalType": "uint256",
          "name": "price",
          "type": "uint256"
        }
      ],
      "name": "LogItemListed",
      "type": "event"
    },
    {
      "anonymous": false,
      "inputs": [
        {
          "indexed": true,
          "internalType": "address",
          "name": "buyer",
          "type": "address"
        },
        {
          "indexed": true,
          "internalType": "address",
          "name": "nftAddress",
          "type": "address"
        },
        {
          "indexed": false,
          "internalType": "uint256",
          "name": "price",
          "type": "uint256"
        }
      ],
      "name": "LogItemUpdated",
      "type": "event"
    },
    {
      "inputs": [],
      "name": "allListings",
      "outputs": [
        {
          "internalType": "address[]",
          "name": "",
          "type": "address[]"
        }
      ],
      "stateMutability": "view",
      "type": "function"
    },
    {
      "inputs": [
        {
          "internalType": "uint256",
          "name": "",
          "type": "uint256"
        }
      ],
      "name": "allNFTs",
      "outputs": [
        {
          "internalType": "address",
          "name": "",
          "type": "address"
        }
      ],
      "stateMutability": "view",
      "type": "function"
    },
    {
      "inputs": [
        {
          "internalType": "address",
          "name": "nftAddress",
          "type": "address"
        },
        {
          "internalType": "uint256",
          "name": "fraction",
          "type": "uint256"
        }
      ],
      "name": "buyItem",
      "outputs": [],
      "stateMutability": "payable",
      "type": "function"
    },
    {
      "inputs": [
        {
          "internalType": "address",
          "name": "nftAddress",
          "type": "address"
        }
      ],
      "name": "cancelListing",
      "outputs": [],
      "stateMutability": "nonpayable",
      "type": "function"
    },
    {
      "inputs": [
        {
          "internalType": "address",
          "name": "nftAddress",
          "type": "address"
        }
      ],
      "name": "getListing",
      "outputs": [
        {
          "components": [
            {
              "internalType": "uint256",
              "name": "price",
              "type": "uint256"
            },
            {
              "internalType": "address",
              "name": "seller",
              "type": "address"
            },
            {
              "internalType": "uint256",
              "name": "amount",
              "type": "uint256"
            }
          ],
          "internalType": "struct NFTMarketplace.Listing",
          "name": "",
          "type": "tuple"
        }
      ],
      "stateMutability": "view",
      "type": "function"
    },
    {
      "inputs": [
        {
          "internalType": "address",
          "name": "seller",
          "type": "address"
        }
      ],
      "name": "getProceeds",
      "outputs": [
        {
          "internalType": "uint256",
          "name": "",
          "type": "uint256"
        }
      ],
      "stateMutability": "view",
      "type": "function"
    },
    {
      "inputs": [
        {
          "internalType": "address",
          "name": "nftAddress",
          "type": "address"
        },
        {
          "internalType": "address",
          "name": "owner",
          "type": "address"
        },
        {
          "internalType": "address",
          "name": "spender",
          "type": "address"
        },
        {
          "internalType": "uint256",
          "name": "amount",
          "type": "uint256"
        },
        {
          "internalType": "uint256",
          "name": "deadline",
          "type": "uint256"
        },
        {
          "internalType": "uint256",
          "name": "price",
          "type": "uint256"
        },
        {
          "internalType": "uint8",
          "name": "v",
          "type": "uint8"
        },
        {
          "internalType": "bytes32",
          "name": "r",
          "type": "bytes32"
        },
        {
          "internalType": "bytes32",
          "name": "s",
          "type": "bytes32"
        }
      ],
      "name": "listItemWithPermit",
      "outputs": [],
      "stateMutability": "nonpayable",
      "type": "function"
    },
    {
      "inputs": [],
      "name": "numListings",
      "outputs": [
        {
          "internalType": "uint256",
          "name": "",
          "type": "uint256"
        }
      ],
      "stateMutability": "view",
      "type": "function"
    },
    {
      "inputs": [
        {
          "internalType": "address",
          "name": "nftAddress",
          "type": "address"
        },
        {
          "internalType": "uint256",
          "name": "newPrice",
          "type": "uint256"
        },
        {
          "internalType": "uint256",
          "name": "amount",
          "type": "uint256"
        },
        {
          "internalType": "uint256",
          "name": "deadline",
          "type": "uint256"
        },
        {
          "internalType": "uint8",
          "name": "v",
          "type": "uint8"
        },
        {
          "internalType": "bytes32",
          "name": "r",
          "type": "bytes32"
        },
        {
          "internalType": "bytes32",
          "name": "s",
          "type": "bytes32"
        }
      ],
      "name": "updateListing",
      "outputs": [],
      "stateMutability": "nonpayable",
      "type": "function"
    },
    {
      "inputs": [],
      "name": "withdrawProceeds",
      "outputs": [],
      "stateMutability": "nonpayable",
      "type": "function"
    }
  ],
  "bytecode": "0x608060405234801561001057600080fd5b50611245806100206000396000f3fe6080604052600436106100b15760003560e01c80639f37092a11610069578063c08f38881161004e578063c08f3888146101e1578063d87c5f7a14610201578063d90cef371461022157600080fd5b80639f37092a14610196578063bf162d67146101a957600080fd5b80634724da6f1161009a5780634724da6f1461014a5780639038e6931461016c57806390af04c11461018157600080fd5b8063084af0b2146100b657806330cfeda914610106575b600080fd5b3480156100c257600080fd5b506100d66100d1366004610fbb565b610243565b60408051825181526020808401516001600160a01b03169082015291810151908201526060015b60405180910390f35b34801561011257600080fd5b5061013c610121366004610fbb565b6001600160a01b031660009081526003602052604090205490565b6040519081526020016100fd565b34801561015657600080fd5b5061016a610165366004610fbb565b6102b2565b005b34801561017857600080fd5b5061016a610451565b34801561018d57600080fd5b5060005461013c565b61016a6101a4366004610fd6565b610559565b3480156101b557600080fd5b506101c96101c4366004611000565b6107fb565b6040516001600160a01b0390911681526020016100fd565b3480156101ed57600080fd5b5061016a6101fc36600461102a565b610825565b34801561020d57600080fd5b5061016a61021c3660046110af565b610b3b565b34801561022d57600080fd5b50610236610ec6565b6040516100fd9190611112565b61027060405180606001604052806000815260200160006001600160a01b03168152602001600081525090565b506001600160a01b0390811660009081526002602081815260409283902083516060810185528154815260018201549095169185019190915201549082015290565b80336040516370a0823160e01b81526001600160a01b03828116600483015283916000918316906370a0823190602401602060405180830381865afa1580156102ff573d6000803e3d6000fd5b505050506040513d601f19601f82011682018060405250810190610323919061115f565b116103615760405162461bcd60e51b81526020600482015260096024820152682737ba1037bbb732b960b91b60448201526064015b60405180910390fd5b6001600160a01b0380851660009081526002602081815260409283902083516060810185528154808252600183015490961692810192909252909101549181019190915285916103e05760405162461bcd60e51b815260206004820152600a602482015269139bdd08131a5cdd195960b21b6044820152606401610358565b6001600160a01b038616600081815260026020819052604080832083815560018101805473ffffffffffffffffffffffffffffffffffffffff191690559091018290555133917fc9669b8a48512518c3136892d2cd2ed45b7b7aa8190bfc0a3750292f3583906591a3505050505050565b33600090815260036020526040902054806104ae5760405162461bcd60e51b815260206004820152600b60248201527f4e6f2070726f63656564730000000000000000000000000000000000000000006044820152606401610358565b336000818152600360205260408082208290555190919083908381818185875af1925050503d80600081146104ff576040519150601f19603f3d011682016040523d82523d6000602084013e610504565b606091505b50509050806105555760405162461bcd60e51b815260206004820152600f60248201527f5472616e73666572206661696c656400000000000000000000000000000000006044820152606401610358565b5050565b6001600160a01b0380831660009081526002602081815260409283902083516060810185528154808252600183015490961692810192909252909101549181019190915283916105d85760405162461bcd60e51b815260206004820152600a602482015269139bdd08131a5cdd195960b21b6044820152606401610358565b6001600160a01b038085166000908152600260208181526040928390208351606081018552815480825260018301549096169281019290925290910154918101919091529034101561066c5760405162461bcd60e51b815260206004820152600d60248201527f5072696365206e6f74206d6574000000000000000000000000000000000000006044820152606401610358565b6001600160a01b038516600090815260026020819052604082200180548692906106979084906111a7565b90915550506020808201516001600160a01b0316600090815260039091526040812080543492906106c99084906111ba565b90915550506001600160a01b0385166000818152600260208181526040832083815560018101805473ffffffffffffffffffffffffffffffffffffffff19169055909101919091558201516323b872dd90336040517fffffffff0000000000000000000000000000000000000000000000000000000060e085901b1681526001600160a01b03928316600482015291166024820152604481018790526064016020604051808303816000875af1158015610787573d6000803e3d6000fd5b505050506040513d601f19601f820116820180604052508101906107ab91906111cd565b50805160408051918252602082018690526001600160a01b0387169133917f4e4294ab7366efb224569d5817c1b3959188f54db37c216798e96643ca3d034f910160405180910390a35050505050565b6001818154811061080b57600080fd5b6000918252602090912001546001600160a01b0316905081565b6001600160a01b03808a166000908152600260208181526040928390208351606081018552815480825260018301549096169281019290925290910154918101919091528a91156108b85760405162461bcd60e51b815260206004820152600e60248201527f416c7265616479204c69737465640000000000000000000000000000000000006044820152606401610358565b6040517fd505accf0000000000000000000000000000000000000000000000000000000081526001600160a01b038b811660048301528a81166024830152604482018a90526064820189905260ff8716608483015260a4820186905260c482018590528c919082169063d505accf9060e401600060405180830381600087803b15801561094457600080fd5b505af1158015610958573d6000803e3d6000fd5b50506040517fdd62ed3e0000000000000000000000000000000000000000000000000000000081526001600160a01b038e811660048301528d811660248301528c93508416915063dd62ed3e90604401602060405180830381865afa1580156109c5573d6000803e3d6000fd5b505050506040513d601f19601f820116820180604052508101906109e9919061115f565b1015610a21576040517fc19f17a900000000000000000000000000000000000000000000000000000000815260040160405180910390fd5b6040518060600160405280888152602001610a393390565b6001600160a01b03908116825260209182018c90528e81166000818152600280855260408083208751815595870151600180880180549290971673ffffffffffffffffffffffffffffffffffffffff199283161790965596015194019390935581548083018355919092527fb10e2d527612073b26eecdfd717e6a320cf44b4afac2b0732d9fcbe2b7fa0cf60180549092168117909155610ad73390565b6001600160a01b03167ff3f0bb188e969a2f3f035c0aa4309dc7801440971970e4e18f11afb37a72d01689604051610b1191815260200190565b60405180910390a3600080549080610b28836111f6565b9190505550505050505050505050505050565b86336040516370a0823160e01b81526001600160a01b03828116600483015283916000918316906370a0823190602401602060405180830381865afa158015610b88573d6000803e3d6000fd5b505050506040513d601f19601f82011682018060405250810190610bac919061115f565b11610be55760405162461bcd60e51b81526020600482015260096024820152682737ba1037bbb732b960b91b6044820152606401610358565b6001600160a01b03808b166000908152600260208181526040928390208351606081018552815480825260018301549096169281019290925290910154918101919091528b91610c645760405162461bcd60e51b815260206004820152600a602482015269139bdd08131a5cdd195960b21b6044820152606401610358565b6000610c70338e610f28565b9050808b1115610cc25760405162461bcd60e51b815260206004820152601560248201527f596f7520646f6e277420686f6c6420656e6f75676800000000000000000000006044820152606401610358565b60008c11610d125760405162461bcd60e51b815260206004820152601860248201527f5072696365206d7573742062652061626f7665207a65726f00000000000000006044820152606401610358565b6001600160a01b038d166000818152600260205260409020908c9063dd62ed3e336040517fffffffff0000000000000000000000000000000000000000000000000000000060e084901b1681526001600160a01b039091166004820152306024820152604401602060405180830381865afa158015610d95573d6000803e3d6000fd5b505050506040513d601f19601f82011682018060405250810190610db9919061115f565b1015610e6c576001600160a01b038e1663d505accf336040517fffffffff0000000000000000000000000000000000000000000000000000000060e084901b1681526001600160a01b039091166004820152306024820152604481018f9052606481018e905260ff8d16608482015260a481018c905260c481018b905260e401600060405180830381600087803b158015610e5357600080fd5b505af1158015610e67573d6000803e3d6000fd5b505050505b8c8155600281018c90556040518d81526001600160a01b038f169033907f1fd00044d7bd9e4c4e8b3401a7212b7681ecd92b15cdebde83136d11f03ac0e89060200160405180910390a35050505050505050505050505050565b60606001805480602002602001604051908101604052809291908181526020018280548015610f1e57602002820191906000526020600020905b81546001600160a01b03168152600190910190602001808311610f00575b5050505050905090565b6040516370a0823160e01b81526001600160a01b038381166004830152600091908316906370a0823190602401602060405180830381865afa158015610f72573d6000803e3d6000fd5b505050506040513d601f19601f82011682018060405250810190610f96919061115f565b90505b92915050565b80356001600160a01b0381168114610fb657600080fd5b919050565b600060208284031215610fcd57600080fd5b610f9682610f9f565b60008060408385031215610fe957600080fd5b610ff283610f9f565b946020939093013593505050565b60006020828403121561101257600080fd5b5035919050565b803560ff81168114610fb657600080fd5b60008060008060008060008060006101208a8c03121561104957600080fd5b6110528a610f9f565b985061106060208b01610f9f565b975061106e60408b01610f9f565b965060608a0135955060808a0135945060a08a0135935061109160c08b01611019565b925060e08a013591506101008a013590509295985092959850929598565b600080600080600080600060e0888a0312156110ca57600080fd5b6110d388610f9f565b96506020880135955060408801359450606088013593506110f660808901611019565b925060a0880135915060c0880135905092959891949750929550565b6020808252825182820181905260009190848201906040850190845b818110156111535783516001600160a01b03168352928401929184019160010161112e565b50909695505050505050565b60006020828403121561117157600080fd5b5051919050565b7f4e487b7100000000000000000000000000000000000000000000000000000000600052601160045260246000fd5b81810381811115610f9957610f99611178565b80820180821115610f9957610f99611178565b6000602082840312156111df57600080fd5b815180151581146111ef57600080fd5b9392505050565b60006001820161120857611208611178565b506001019056fea2646970667358221220683014ec0d0c78437a579da9a3b5140e4f95166c6e3c10a9ea4a7d68b0a28b4364736f6c63430008140033",
  "linkReferences": {},
  "deployedLinkReferences": {}
}