{
  "_format": "hh-sol-artifact-1",
  "contractName": "NFTMarketplace",
  "sourceName": "contracts/NFTMarketplace.sol",
  "abi": [
    {
      "inputs": [],
      "name": "NotApproved",
      "type": "error"
    },
    {
      "anonymous": false,
      "inputs": [
        {
          "indexed": true,
          "internalType": "address",
          "name": "buyer",
          "type": "address"
        },
        {
          "indexed": true,
          "internalType": "address",
          "name": "nftAddress",
          "type": "address"
        },
        {
          "indexed": false,
          "internalType": "uint256",
          "name": "price",
          "type": "uint256"
        },
        {
          "indexed": false,
          "internalType": "uint256",
          "name": "fraction",
          "type": "uint256"
        }
      ],
      "name": "LogItemBought",
      "type": "event"
    },
    {
      "anonymous": false,
      "inputs": [
        {
          "indexed": true,
          "internalType": "address",
          "name": "seller",
          "type": "address"
        },
        {
          "indexed": true,
          "internalType": "address",
          "name": "nftAddress",
          "type": "address"
        }
      ],
      "name": "LogItemCanceled",
      "type": "event"
    },
    {
      "anonymous": false,
      "inputs": [
        {
          "indexed": true,
          "internalType": "address",
          "name": "seller",
          "type": "address"
        },
        {
          "indexed": true,
          "internalType": "address",
          "name": "nftAddress",
          "type": "address"
        },
        {
          "indexed": false,
          "internalType": "uint256",
          "name": "price",
          "type": "uint256"
        }
      ],
      "name": "LogItemListed",
      "type": "event"
    },
    {
      "inputs": [
        {
          "internalType": "address",
          "name": "nftAddress",
          "type": "address"
        },
        {
          "internalType": "uint256",
          "name": "fraction",
          "type": "uint256"
        }
      ],
      "name": "buyItem",
      "outputs": [],
      "stateMutability": "payable",
      "type": "function"
    },
    {
      "inputs": [
        {
          "internalType": "address",
          "name": "nftAddress",
          "type": "address"
        }
      ],
      "name": "cancelListing",
      "outputs": [],
      "stateMutability": "nonpayable",
      "type": "function"
    },
    {
      "inputs": [
        {
          "internalType": "address",
          "name": "nftAddress",
          "type": "address"
        }
      ],
      "name": "getListing",
      "outputs": [
        {
          "components": [
            {
              "internalType": "uint256",
              "name": "price",
              "type": "uint256"
            },
            {
              "internalType": "address",
              "name": "seller",
              "type": "address"
            }
          ],
          "internalType": "struct NFTMarketplace.Listing",
          "name": "",
          "type": "tuple"
        }
      ],
      "stateMutability": "view",
      "type": "function"
    },
    {
      "inputs": [
        {
          "internalType": "address",
          "name": "seller",
          "type": "address"
        }
      ],
      "name": "getProceeds",
      "outputs": [
        {
          "internalType": "uint256",
          "name": "",
          "type": "uint256"
        }
      ],
      "stateMutability": "view",
      "type": "function"
    },
    {
      "inputs": [
        {
          "internalType": "address",
          "name": "nftAddress",
          "type": "address"
        },
        {
          "internalType": "address",
          "name": "owner",
          "type": "address"
        },
        {
          "internalType": "address",
          "name": "spender",
          "type": "address"
        },
        {
          "internalType": "uint256",
          "name": "amount",
          "type": "uint256"
        },
        {
          "internalType": "uint256",
          "name": "deadline",
          "type": "uint256"
        },
        {
          "internalType": "uint256",
          "name": "price",
          "type": "uint256"
        },
        {
          "internalType": "uint8",
          "name": "v",
          "type": "uint8"
        },
        {
          "internalType": "bytes32",
          "name": "r",
          "type": "bytes32"
        },
        {
          "internalType": "bytes32",
          "name": "s",
          "type": "bytes32"
        }
      ],
      "name": "listItemWithPermit",
      "outputs": [],
      "stateMutability": "nonpayable",
      "type": "function"
    },
    {
      "inputs": [],
      "name": "numListings",
      "outputs": [
        {
          "internalType": "uint256",
          "name": "",
          "type": "uint256"
        }
      ],
      "stateMutability": "view",
      "type": "function"
    },
    {
      "inputs": [
        {
          "internalType": "address",
          "name": "nftAddress",
          "type": "address"
        },
        {
          "internalType": "uint256",
          "name": "newPrice",
          "type": "uint256"
        }
      ],
      "name": "updateListing",
      "outputs": [],
      "stateMutability": "nonpayable",
      "type": "function"
    },
    {
      "inputs": [],
      "name": "withdrawProceeds",
      "outputs": [],
      "stateMutability": "nonpayable",
      "type": "function"
    }
  ],
  "bytecode": "0x608060405234801561001057600080fd5b50611a1c806100206000396000f3fe60806040526004361061007b5760003560e01c80639038e6931161004e5780639038e6931461014c57806390af04c1146101635780639f37092a1461018e578063c08f3888146101aa5761007b565b8063084af0b21461008057806326aa0db6146100bd57806330cfeda9146100e65780634724da6f14610123575b600080fd5b34801561008c57600080fd5b506100a760048036038101906100a2919061119b565b6101d3565b6040516100b4919061121f565b60405180910390f35b3480156100c957600080fd5b506100e460048036038101906100df9190611266565b61028c565b005b3480156100f257600080fd5b5061010d6004803603810190610108919061119b565b61054b565b60405161011a91906112b5565b60405180910390f35b34801561012f57600080fd5b5061014a6004803603810190610145919061119b565b610594565b005b34801561015857600080fd5b5061016161082e565b005b34801561016f57600080fd5b506101786109bf565b60405161018591906112b5565b60405180910390f35b6101a860048036038101906101a39190611266565b6109c8565b005b3480156101b657600080fd5b506101d160048036038101906101cc919061133f565b610d83565b005b6101db611108565b600160008373ffffffffffffffffffffffffffffffffffffffff1673ffffffffffffffffffffffffffffffffffffffff168152602001908152602001600020604051806040016040529081600082015481526020016001820160009054906101000a900473ffffffffffffffffffffffffffffffffffffffff1673ffffffffffffffffffffffffffffffffffffffff1673ffffffffffffffffffffffffffffffffffffffff16815250509050919050565b816000600160008373ffffffffffffffffffffffffffffffffffffffff1673ffffffffffffffffffffffffffffffffffffffff168152602001908152602001600020604051806040016040529081600082015481526020016001820160009054906101000a900473ffffffffffffffffffffffffffffffffffffffff1673ffffffffffffffffffffffffffffffffffffffff1673ffffffffffffffffffffffffffffffffffffffff168152505090506000816000015111610382576040517f08c379a000000000000000000000000000000000000000000000000000000000815260040161037990611466565b60405180910390fd5b8361038b611100565b600082905060008173ffffffffffffffffffffffffffffffffffffffff166370a08231846040518263ffffffff1660e01b81526004016103cb9190611495565b602060405180830381865afa1580156103e8573d6000803e3d6000fd5b505050506040513d601f19601f8201168201806040525081019061040c91906114c5565b1161044c576040517f08c379a00000000000000000000000000000000000000000000000000000000081526004016104439061153e565b60405180910390fd5b6000861161048f576040517f08c379a0000000000000000000000000000000000000000000000000000000008152600401610486906115aa565b60405180910390fd5b85600160008973ffffffffffffffffffffffffffffffffffffffff1673ffffffffffffffffffffffffffffffffffffffff168152602001908152602001600020600001819055508673ffffffffffffffffffffffffffffffffffffffff166104f5611100565b73ffffffffffffffffffffffffffffffffffffffff167ff3f0bb188e969a2f3f035c0aa4309dc7801440971970e4e18f11afb37a72d0168860405161053a91906112b5565b60405180910390a350505050505050565b6000600260008373ffffffffffffffffffffffffffffffffffffffff1673ffffffffffffffffffffffffffffffffffffffff168152602001908152602001600020549050919050565b8061059d611100565b600082905060008173ffffffffffffffffffffffffffffffffffffffff166370a08231846040518263ffffffff1660e01b81526004016105dd9190611495565b602060405180830381865afa1580156105fa573d6000803e3d6000fd5b505050506040513d601f19601f8201168201806040525081019061061e91906114c5565b1161065e576040517f08c379a00000000000000000000000000000000000000000000000000000000081526004016106559061153e565b60405180910390fd5b836000600160008373ffffffffffffffffffffffffffffffffffffffff1673ffffffffffffffffffffffffffffffffffffffff168152602001908152602001600020604051806040016040529081600082015481526020016001820160009054906101000a900473ffffffffffffffffffffffffffffffffffffffff1673ffffffffffffffffffffffffffffffffffffffff1673ffffffffffffffffffffffffffffffffffffffff168152505090506000816000015111610754576040517f08c379a000000000000000000000000000000000000000000000000000000000815260040161074b90611466565b60405180910390fd5b600160008773ffffffffffffffffffffffffffffffffffffffff1673ffffffffffffffffffffffffffffffffffffffff1681526020019081526020016000206000808201600090556001820160006101000a81549073ffffffffffffffffffffffffffffffffffffffff021916905550508573ffffffffffffffffffffffffffffffffffffffff166107e4611100565b73ffffffffffffffffffffffffffffffffffffffff167fc9669b8a48512518c3136892d2cd2ed45b7b7aa8190bfc0a3750292f3583906560405160405180910390a3505050505050565b60006002600061083c611100565b73ffffffffffffffffffffffffffffffffffffffff1673ffffffffffffffffffffffffffffffffffffffff168152602001908152602001600020549050600081116108bc576040517f08c379a00000000000000000000000000000000000000000000000000000000081526004016108b390611616565b60405180910390fd5b6000600260006108ca611100565b73ffffffffffffffffffffffffffffffffffffffff1673ffffffffffffffffffffffffffffffffffffffff168152602001908152602001600020819055506000610912611100565b73ffffffffffffffffffffffffffffffffffffffff168260405161093590611667565b60006040518083038185875af1925050503d8060008114610972576040519150601f19603f3d011682016040523d82523d6000602084013e610977565b606091505b50509050806109bb576040517f08c379a00000000000000000000000000000000000000000000000000000000081526004016109b2906116c8565b60405180910390fd5b5050565b60008054905090565b816000600160008373ffffffffffffffffffffffffffffffffffffffff1673ffffffffffffffffffffffffffffffffffffffff168152602001908152602001600020604051806040016040529081600082015481526020016001820160009054906101000a900473ffffffffffffffffffffffffffffffffffffffff1673ffffffffffffffffffffffffffffffffffffffff1673ffffffffffffffffffffffffffffffffffffffff168152505090506000816000015111610abe576040517f08c379a0000000000000000000000000000000000000000000000000000000008152600401610ab590611466565b60405180910390fd5b6000600160008673ffffffffffffffffffffffffffffffffffffffff1673ffffffffffffffffffffffffffffffffffffffff168152602001908152602001600020604051806040016040529081600082015481526020016001820160009054906101000a900473ffffffffffffffffffffffffffffffffffffffff1673ffffffffffffffffffffffffffffffffffffffff1673ffffffffffffffffffffffffffffffffffffffff168152505090508060000151341015610bb3576040517f08c379a0000000000000000000000000000000000000000000000000000000008152600401610baa90611734565b60405180910390fd5b3460026000836020015173ffffffffffffffffffffffffffffffffffffffff1673ffffffffffffffffffffffffffffffffffffffff1681526020019081526020016000206000828254610c069190611783565b92505081905550600160008673ffffffffffffffffffffffffffffffffffffffff1673ffffffffffffffffffffffffffffffffffffffff1681526020019081526020016000206000808201600090556001820160006101000a81549073ffffffffffffffffffffffffffffffffffffffff021916905550508473ffffffffffffffffffffffffffffffffffffffff166323b872dd8260200151610ca7611100565b876040518463ffffffff1660e01b8152600401610cc6939291906117b7565b6020604051808303816000875af1158015610ce5573d6000803e3d6000fd5b505050506040513d601f19601f82011682018060405250810190610d099190611826565b508473ffffffffffffffffffffffffffffffffffffffff16610d29611100565b73ffffffffffffffffffffffffffffffffffffffff167f4e4294ab7366efb224569d5817c1b3959188f54db37c216798e96643ca3d034f836000015187604051610d74929190611853565b60405180910390a35050505050565b886000600160008373ffffffffffffffffffffffffffffffffffffffff1673ffffffffffffffffffffffffffffffffffffffff168152602001908152602001600020604051806040016040529081600082015481526020016001820160009054906101000a900473ffffffffffffffffffffffffffffffffffffffff1673ffffffffffffffffffffffffffffffffffffffff1673ffffffffffffffffffffffffffffffffffffffff168152505090506000816000015114610e79576040517f08c379a0000000000000000000000000000000000000000000000000000000008152600401610e70906118c8565b60405180910390fd5b60008b90508073ffffffffffffffffffffffffffffffffffffffff1663d505accf8c8c8c8c8b8b8b6040518863ffffffff1660e01b8152600401610ec39796959493929190611906565b600060405180830381600087803b158015610edd57600080fd5b505af1158015610ef1573d6000803e3d6000fd5b50505050888173ffffffffffffffffffffffffffffffffffffffff1663dd62ed3e8d8d6040518363ffffffff1660e01b8152600401610f31929190611975565b602060405180830381865afa158015610f4e573d6000803e3d6000fd5b505050506040513d601f19601f82011682018060405250810190610f7291906114c5565b1015610faa576040517fc19f17a900000000000000000000000000000000000000000000000000000000815260040160405180910390fd5b6040518060400160405280888152602001610fc3611100565b73ffffffffffffffffffffffffffffffffffffffff16815250600160008e73ffffffffffffffffffffffffffffffffffffffff1673ffffffffffffffffffffffffffffffffffffffff1681526020019081526020016000206000820151816000015560208201518160010160006101000a81548173ffffffffffffffffffffffffffffffffffffffff021916908373ffffffffffffffffffffffffffffffffffffffff1602179055509050508b73ffffffffffffffffffffffffffffffffffffffff1661108e611100565b73ffffffffffffffffffffffffffffffffffffffff167ff3f0bb188e969a2f3f035c0aa4309dc7801440971970e4e18f11afb37a72d016896040516110d391906112b5565b60405180910390a36000808154809291906110ed9061199e565b9190505550505050505050505050505050565b600033905090565b604051806040016040528060008152602001600073ffffffffffffffffffffffffffffffffffffffff1681525090565b600080fd5b600073ffffffffffffffffffffffffffffffffffffffff82169050919050565b60006111688261113d565b9050919050565b6111788161115d565b811461118357600080fd5b50565b6000813590506111958161116f565b92915050565b6000602082840312156111b1576111b0611138565b5b60006111bf84828501611186565b91505092915050565b6000819050919050565b6111db816111c8565b82525050565b6111ea8161115d565b82525050565b60408201600082015161120660008501826111d2565b50602082015161121960208501826111e1565b50505050565b600060408201905061123460008301846111f0565b92915050565b611243816111c8565b811461124e57600080fd5b50565b6000813590506112608161123a565b92915050565b6000806040838503121561127d5761127c611138565b5b600061128b85828601611186565b925050602061129c85828601611251565b9150509250929050565b6112af816111c8565b82525050565b60006020820190506112ca60008301846112a6565b92915050565b600060ff82169050919050565b6112e6816112d0565b81146112f157600080fd5b50565b600081359050611303816112dd565b92915050565b6000819050919050565b61131c81611309565b811461132757600080fd5b50565b60008135905061133981611313565b92915050565b60008060008060008060008060006101208a8c03121561136257611361611138565b5b60006113708c828d01611186565b99505060206113818c828d01611186565b98505060406113928c828d01611186565b97505060606113a38c828d01611251565b96505060806113b48c828d01611251565b95505060a06113c58c828d01611251565b94505060c06113d68c828d016112f4565b93505060e06113e78c828d0161132a565b9250506101006113f98c828d0161132a565b9150509295985092959850929598565b600082825260208201905092915050565b7f4e6f74206c697374656400000000000000000000000000000000000000000000600082015250565b6000611450600a83611409565b915061145b8261141a565b602082019050919050565b6000602082019050818103600083015261147f81611443565b9050919050565b61148f8161115d565b82525050565b60006020820190506114aa6000830184611486565b92915050565b6000815190506114bf8161123a565b92915050565b6000602082840312156114db576114da611138565b5b60006114e9848285016114b0565b91505092915050565b7f4e6f74206f776e65720000000000000000000000000000000000000000000000600082015250565b6000611528600983611409565b9150611533826114f2565b602082019050919050565b600060208201905081810360008301526115578161151b565b9050919050565b7f5072696365206d7573742062652061626f7665207a65726f0000000000000000600082015250565b6000611594601883611409565b915061159f8261155e565b602082019050919050565b600060208201905081810360008301526115c381611587565b9050919050565b7f4e6f2070726f6365656473000000000000000000000000000000000000000000600082015250565b6000611600600b83611409565b915061160b826115ca565b602082019050919050565b6000602082019050818103600083015261162f816115f3565b9050919050565b600081905092915050565b50565b6000611651600083611636565b915061165c82611641565b600082019050919050565b600061167282611644565b9150819050919050565b7f5472616e73666572206661696c65640000000000000000000000000000000000600082015250565b60006116b2600f83611409565b91506116bd8261167c565b602082019050919050565b600060208201905081810360008301526116e1816116a5565b9050919050565b7f5072696365206e6f74206d657400000000000000000000000000000000000000600082015250565b600061171e600d83611409565b9150611729826116e8565b602082019050919050565b6000602082019050818103600083015261174d81611711565b9050919050565b7f4e487b7100000000000000000000000000000000000000000000000000000000600052601160045260246000fd5b600061178e826111c8565b9150611799836111c8565b92508282019050808211156117b1576117b0611754565b5b92915050565b60006060820190506117cc6000830186611486565b6117d96020830185611486565b6117e660408301846112a6565b949350505050565b60008115159050919050565b611803816117ee565b811461180e57600080fd5b50565b600081519050611820816117fa565b92915050565b60006020828403121561183c5761183b611138565b5b600061184a84828501611811565b91505092915050565b600060408201905061186860008301856112a6565b61187560208301846112a6565b9392505050565b7f416c7265616479206c6973746564000000000000000000000000000000000000600082015250565b60006118b2600e83611409565b91506118bd8261187c565b602082019050919050565b600060208201905081810360008301526118e1816118a5565b9050919050565b6118f1816112d0565b82525050565b61190081611309565b82525050565b600060e08201905061191b600083018a611486565b6119286020830189611486565b61193560408301886112a6565b61194260608301876112a6565b61194f60808301866118e8565b61195c60a08301856118f7565b61196960c08301846118f7565b98975050505050505050565b600060408201905061198a6000830185611486565b6119976020830184611486565b9392505050565b60006119a9826111c8565b91507fffffffffffffffffffffffffffffffffffffffffffffffffffffffffffffffff82036119db576119da611754565b5b60018201905091905056fea2646970667358221220309613afb3d7f3df8779cfe95b3e076afb561e6f06e1ecf98039b49483d91ef664736f6c63430008140033",
  "linkReferences": {},
  "deployedLinkReferences": {}
}