{
  "_format": "hh-sol-artifact-1",
  "contractName": "NFTMarketplace",
  "sourceName": "contracts/NFTMarketplace.sol",
  "abi": [
    {
      "inputs": [],
      "name": "NotApproved",
      "type": "error"
    },
    {
      "anonymous": false,
      "inputs": [
        {
          "indexed": true,
          "internalType": "address",
          "name": "buyer",
          "type": "address"
        },
        {
          "indexed": true,
          "internalType": "address",
          "name": "nftAddress",
          "type": "address"
        },
        {
          "indexed": false,
          "internalType": "uint256",
          "name": "price",
          "type": "uint256"
        },
        {
          "indexed": false,
          "internalType": "uint256",
          "name": "fraction",
          "type": "uint256"
        }
      ],
      "name": "LogItemBought",
      "type": "event"
    },
    {
      "anonymous": false,
      "inputs": [
        {
          "indexed": true,
          "internalType": "address",
          "name": "seller",
          "type": "address"
        },
        {
          "indexed": true,
          "internalType": "address",
          "name": "nftAddress",
          "type": "address"
        }
      ],
      "name": "LogItemCanceled",
      "type": "event"
    },
    {
      "anonymous": false,
      "inputs": [
        {
          "indexed": true,
          "internalType": "address",
          "name": "seller",
          "type": "address"
        },
        {
          "indexed": true,
          "internalType": "address",
          "name": "nftAddress",
          "type": "address"
        },
        {
          "indexed": false,
          "internalType": "uint256",
          "name": "price",
          "type": "uint256"
        }
      ],
      "name": "LogItemListed",
      "type": "event"
    },
    {
      "inputs": [
        {
          "internalType": "address",
          "name": "nftAddress",
          "type": "address"
        },
        {
          "internalType": "uint256",
          "name": "fraction",
          "type": "uint256"
        }
      ],
      "name": "buyItem",
      "outputs": [],
      "stateMutability": "payable",
      "type": "function"
    },
    {
      "inputs": [
        {
          "internalType": "address",
          "name": "nftAddress",
          "type": "address"
        }
      ],
      "name": "cancelListing",
      "outputs": [],
      "stateMutability": "nonpayable",
      "type": "function"
    },
    {
      "inputs": [
        {
          "internalType": "address",
          "name": "nftAddress",
          "type": "address"
        }
      ],
      "name": "getListing",
      "outputs": [
        {
          "components": [
            {
              "internalType": "uint256",
              "name": "price",
              "type": "uint256"
            },
            {
              "internalType": "address",
              "name": "seller",
              "type": "address"
            }
          ],
          "internalType": "struct NFTMarketplace.Listing",
          "name": "",
          "type": "tuple"
        }
      ],
      "stateMutability": "view",
      "type": "function"
    },
    {
      "inputs": [
        {
          "internalType": "address",
          "name": "seller",
          "type": "address"
        }
      ],
      "name": "getProceeds",
      "outputs": [
        {
          "internalType": "uint256",
          "name": "",
          "type": "uint256"
        }
      ],
      "stateMutability": "view",
      "type": "function"
    },
    {
      "inputs": [
        {
          "internalType": "address",
          "name": "nftAddress",
          "type": "address"
        },
        {
          "internalType": "uint256",
          "name": "amount",
          "type": "uint256"
        },
        {
          "internalType": "uint256",
          "name": "price",
          "type": "uint256"
        },
        {
          "internalType": "uint256",
          "name": "deadline",
          "type": "uint256"
        },
        {
          "internalType": "uint8",
          "name": "v",
          "type": "uint8"
        },
        {
          "internalType": "bytes32",
          "name": "r",
          "type": "bytes32"
        },
        {
          "internalType": "bytes32",
          "name": "s",
          "type": "bytes32"
        }
      ],
      "name": "listItemWithPermit",
      "outputs": [],
      "stateMutability": "nonpayable",
      "type": "function"
    },
    {
      "inputs": [],
      "name": "numListings",
      "outputs": [
        {
          "internalType": "uint256",
          "name": "",
          "type": "uint256"
        }
      ],
      "stateMutability": "view",
      "type": "function"
    },
    {
      "inputs": [
        {
          "internalType": "address",
          "name": "nftAddress",
          "type": "address"
        },
        {
          "internalType": "uint256",
          "name": "newPrice",
          "type": "uint256"
        }
      ],
      "name": "updateListing",
      "outputs": [],
      "stateMutability": "nonpayable",
      "type": "function"
    },
    {
      "inputs": [],
      "name": "withdrawProceeds",
      "outputs": [],
      "stateMutability": "nonpayable",
      "type": "function"
    }
  ],
  "bytecode": "0x608060405234801561001057600080fd5b50611a00806100206000396000f3fe60806040526004361061007b5760003560e01c80637fc41de11161004e5780637fc41de11461014c5780639038e6931461017557806390af04c11461018c5780639f37092a146101b75761007b565b8063084af0b21461008057806326aa0db6146100bd57806330cfeda9146100e65780634724da6f14610123575b600080fd5b34801561008c57600080fd5b506100a760048036038101906100a291906111a7565b6101d3565b6040516100b4919061122b565b60405180910390f35b3480156100c957600080fd5b506100e460048036038101906100df9190611272565b61028c565b005b3480156100f257600080fd5b5061010d600480360381019061010891906111a7565b61054b565b60405161011a91906112c1565b60405180910390f35b34801561012f57600080fd5b5061014a600480360381019061014591906111a7565b610594565b005b34801561015857600080fd5b50610173600480360381019061016e919061134b565b61082e565b005b34801561018157600080fd5b5061018a610bb7565b005b34801561019857600080fd5b506101a1610d48565b6040516101ae91906112c1565b60405180910390f35b6101d160048036038101906101cc9190611272565b610d51565b005b6101db611114565b600160008373ffffffffffffffffffffffffffffffffffffffff1673ffffffffffffffffffffffffffffffffffffffff168152602001908152602001600020604051806040016040529081600082015481526020016001820160009054906101000a900473ffffffffffffffffffffffffffffffffffffffff1673ffffffffffffffffffffffffffffffffffffffff1673ffffffffffffffffffffffffffffffffffffffff16815250509050919050565b816000600160008373ffffffffffffffffffffffffffffffffffffffff1673ffffffffffffffffffffffffffffffffffffffff168152602001908152602001600020604051806040016040529081600082015481526020016001820160009054906101000a900473ffffffffffffffffffffffffffffffffffffffff1673ffffffffffffffffffffffffffffffffffffffff1673ffffffffffffffffffffffffffffffffffffffff168152505090506000816000015111610382576040517f08c379a00000000000000000000000000000000000000000000000000000000081526004016103799061144a565b60405180910390fd5b8361038b61110c565b600082905060008173ffffffffffffffffffffffffffffffffffffffff166370a08231846040518263ffffffff1660e01b81526004016103cb9190611479565b602060405180830381865afa1580156103e8573d6000803e3d6000fd5b505050506040513d601f19601f8201168201806040525081019061040c91906114a9565b1161044c576040517f08c379a000000000000000000000000000000000000000000000000000000000815260040161044390611522565b60405180910390fd5b6000861161048f576040517f08c379a00000000000000000000000000000000000000000000000000000000081526004016104869061158e565b60405180910390fd5b85600160008973ffffffffffffffffffffffffffffffffffffffff1673ffffffffffffffffffffffffffffffffffffffff168152602001908152602001600020600001819055508673ffffffffffffffffffffffffffffffffffffffff166104f561110c565b73ffffffffffffffffffffffffffffffffffffffff167ff3f0bb188e969a2f3f035c0aa4309dc7801440971970e4e18f11afb37a72d0168860405161053a91906112c1565b60405180910390a350505050505050565b6000600260008373ffffffffffffffffffffffffffffffffffffffff1673ffffffffffffffffffffffffffffffffffffffff168152602001908152602001600020549050919050565b8061059d61110c565b600082905060008173ffffffffffffffffffffffffffffffffffffffff166370a08231846040518263ffffffff1660e01b81526004016105dd9190611479565b602060405180830381865afa1580156105fa573d6000803e3d6000fd5b505050506040513d601f19601f8201168201806040525081019061061e91906114a9565b1161065e576040517f08c379a000000000000000000000000000000000000000000000000000000000815260040161065590611522565b60405180910390fd5b836000600160008373ffffffffffffffffffffffffffffffffffffffff1673ffffffffffffffffffffffffffffffffffffffff168152602001908152602001600020604051806040016040529081600082015481526020016001820160009054906101000a900473ffffffffffffffffffffffffffffffffffffffff1673ffffffffffffffffffffffffffffffffffffffff1673ffffffffffffffffffffffffffffffffffffffff168152505090506000816000015111610754576040517f08c379a000000000000000000000000000000000000000000000000000000000815260040161074b9061144a565b60405180910390fd5b600160008773ffffffffffffffffffffffffffffffffffffffff1673ffffffffffffffffffffffffffffffffffffffff1681526020019081526020016000206000808201600090556001820160006101000a81549073ffffffffffffffffffffffffffffffffffffffff021916905550508573ffffffffffffffffffffffffffffffffffffffff166107e461110c565b73ffffffffffffffffffffffffffffffffffffffff167fc9669b8a48512518c3136892d2cd2ed45b7b7aa8190bfc0a3750292f3583906560405160405180910390a3505050505050565b866000600160008373ffffffffffffffffffffffffffffffffffffffff1673ffffffffffffffffffffffffffffffffffffffff168152602001908152602001600020604051806040016040529081600082015481526020016001820160009054906101000a900473ffffffffffffffffffffffffffffffffffffffff1673ffffffffffffffffffffffffffffffffffffffff1673ffffffffffffffffffffffffffffffffffffffff168152505090506000816000015114610924576040517f08c379a000000000000000000000000000000000000000000000000000000000815260040161091b906115fa565b60405180910390fd5b60008990508073ffffffffffffffffffffffffffffffffffffffff1663d505accf61094d61110c565b308c8b8b8b8b6040518863ffffffff1660e01b81526004016109759796959493929190611638565b600060405180830381600087803b15801561098f57600080fd5b505af11580156109a3573d6000803e3d6000fd5b50505050888173ffffffffffffffffffffffffffffffffffffffff1663dd62ed3e6109cc61110c565b306040518363ffffffff1660e01b81526004016109ea9291906116a7565b602060405180830381865afa158015610a07573d6000803e3d6000fd5b505050506040513d601f19601f82011682018060405250810190610a2b91906114a9565b1015610a63576040517fc19f17a900000000000000000000000000000000000000000000000000000000815260040160405180910390fd5b6040518060400160405280898152602001610a7c61110c565b73ffffffffffffffffffffffffffffffffffffffff16815250600160008c73ffffffffffffffffffffffffffffffffffffffff1673ffffffffffffffffffffffffffffffffffffffff1681526020019081526020016000206000820151816000015560208201518160010160006101000a81548173ffffffffffffffffffffffffffffffffffffffff021916908373ffffffffffffffffffffffffffffffffffffffff1602179055509050508973ffffffffffffffffffffffffffffffffffffffff16610b4761110c565b73ffffffffffffffffffffffffffffffffffffffff167ff3f0bb188e969a2f3f035c0aa4309dc7801440971970e4e18f11afb37a72d0168a604051610b8c91906112c1565b60405180910390a3600080815480929190610ba6906116ff565b919050555050505050505050505050565b600060026000610bc561110c565b73ffffffffffffffffffffffffffffffffffffffff1673ffffffffffffffffffffffffffffffffffffffff16815260200190815260200160002054905060008111610c45576040517f08c379a0000000000000000000000000000000000000000000000000000000008152600401610c3c90611793565b60405180910390fd5b600060026000610c5361110c565b73ffffffffffffffffffffffffffffffffffffffff1673ffffffffffffffffffffffffffffffffffffffff168152602001908152602001600020819055506000610c9b61110c565b73ffffffffffffffffffffffffffffffffffffffff1682604051610cbe906117e4565b60006040518083038185875af1925050503d8060008114610cfb576040519150601f19603f3d011682016040523d82523d6000602084013e610d00565b606091505b5050905080610d44576040517f08c379a0000000000000000000000000000000000000000000000000000000008152600401610d3b90611845565b60405180910390fd5b5050565b60008054905090565b816000600160008373ffffffffffffffffffffffffffffffffffffffff1673ffffffffffffffffffffffffffffffffffffffff168152602001908152602001600020604051806040016040529081600082015481526020016001820160009054906101000a900473ffffffffffffffffffffffffffffffffffffffff1673ffffffffffffffffffffffffffffffffffffffff1673ffffffffffffffffffffffffffffffffffffffff168152505090506000816000015111610e47576040517f08c379a0000000000000000000000000000000000000000000000000000000008152600401610e3e9061144a565b60405180910390fd5b6000600160008673ffffffffffffffffffffffffffffffffffffffff1673ffffffffffffffffffffffffffffffffffffffff168152602001908152602001600020604051806040016040529081600082015481526020016001820160009054906101000a900473ffffffffffffffffffffffffffffffffffffffff1673ffffffffffffffffffffffffffffffffffffffff1673ffffffffffffffffffffffffffffffffffffffff168152505090508060000151341015610f3c576040517f08c379a0000000000000000000000000000000000000000000000000000000008152600401610f33906118b1565b60405180910390fd5b3460026000836020015173ffffffffffffffffffffffffffffffffffffffff1673ffffffffffffffffffffffffffffffffffffffff1681526020019081526020016000206000828254610f8f91906118d1565b92505081905550600160008673ffffffffffffffffffffffffffffffffffffffff1673ffffffffffffffffffffffffffffffffffffffff1681526020019081526020016000206000808201600090556001820160006101000a81549073ffffffffffffffffffffffffffffffffffffffff021916905550508473ffffffffffffffffffffffffffffffffffffffff166323b872dd826020015161103061110c565b876040518463ffffffff1660e01b815260040161104f93929190611905565b6020604051808303816000875af115801561106e573d6000803e3d6000fd5b505050506040513d601f19601f820116820180604052508101906110929190611974565b508473ffffffffffffffffffffffffffffffffffffffff166110b261110c565b73ffffffffffffffffffffffffffffffffffffffff167f4e4294ab7366efb224569d5817c1b3959188f54db37c216798e96643ca3d034f8360000151876040516110fd9291906119a1565b60405180910390a35050505050565b600033905090565b604051806040016040528060008152602001600073ffffffffffffffffffffffffffffffffffffffff1681525090565b600080fd5b600073ffffffffffffffffffffffffffffffffffffffff82169050919050565b600061117482611149565b9050919050565b61118481611169565b811461118f57600080fd5b50565b6000813590506111a18161117b565b92915050565b6000602082840312156111bd576111bc611144565b5b60006111cb84828501611192565b91505092915050565b6000819050919050565b6111e7816111d4565b82525050565b6111f681611169565b82525050565b60408201600082015161121260008501826111de565b50602082015161122560208501826111ed565b50505050565b600060408201905061124060008301846111fc565b92915050565b61124f816111d4565b811461125a57600080fd5b50565b60008135905061126c81611246565b92915050565b6000806040838503121561128957611288611144565b5b600061129785828601611192565b92505060206112a88582860161125d565b9150509250929050565b6112bb816111d4565b82525050565b60006020820190506112d660008301846112b2565b92915050565b600060ff82169050919050565b6112f2816112dc565b81146112fd57600080fd5b50565b60008135905061130f816112e9565b92915050565b6000819050919050565b61132881611315565b811461133357600080fd5b50565b6000813590506113458161131f565b92915050565b600080600080600080600060e0888a03121561136a57611369611144565b5b60006113788a828b01611192565b97505060206113898a828b0161125d565b965050604061139a8a828b0161125d565b95505060606113ab8a828b0161125d565b94505060806113bc8a828b01611300565b93505060a06113cd8a828b01611336565b92505060c06113de8a828b01611336565b91505092959891949750929550565b600082825260208201905092915050565b7f4e6f74206c697374656400000000000000000000000000000000000000000000600082015250565b6000611434600a836113ed565b915061143f826113fe565b602082019050919050565b6000602082019050818103600083015261146381611427565b9050919050565b61147381611169565b82525050565b600060208201905061148e600083018461146a565b92915050565b6000815190506114a381611246565b92915050565b6000602082840312156114bf576114be611144565b5b60006114cd84828501611494565b91505092915050565b7f4e6f74206f776e65720000000000000000000000000000000000000000000000600082015250565b600061150c6009836113ed565b9150611517826114d6565b602082019050919050565b6000602082019050818103600083015261153b816114ff565b9050919050565b7f5072696365206d7573742062652061626f7665207a65726f0000000000000000600082015250565b60006115786018836113ed565b915061158382611542565b602082019050919050565b600060208201905081810360008301526115a78161156b565b9050919050565b7f416c7265616479206c6973746564000000000000000000000000000000000000600082015250565b60006115e4600e836113ed565b91506115ef826115ae565b602082019050919050565b60006020820190508181036000830152611613816115d7565b9050919050565b611623816112dc565b82525050565b61163281611315565b82525050565b600060e08201905061164d600083018a61146a565b61165a602083018961146a565b61166760408301886112b2565b61167460608301876112b2565b611681608083018661161a565b61168e60a0830185611629565b61169b60c0830184611629565b98975050505050505050565b60006040820190506116bc600083018561146a565b6116c9602083018461146a565b9392505050565b7f4e487b7100000000000000000000000000000000000000000000000000000000600052601160045260246000fd5b600061170a826111d4565b91507fffffffffffffffffffffffffffffffffffffffffffffffffffffffffffffffff820361173c5761173b6116d0565b5b600182019050919050565b7f4e6f2070726f6365656473000000000000000000000000000000000000000000600082015250565b600061177d600b836113ed565b915061178882611747565b602082019050919050565b600060208201905081810360008301526117ac81611770565b9050919050565b600081905092915050565b50565b60006117ce6000836117b3565b91506117d9826117be565b600082019050919050565b60006117ef826117c1565b9150819050919050565b7f5472616e73666572206661696c65640000000000000000000000000000000000600082015250565b600061182f600f836113ed565b915061183a826117f9565b602082019050919050565b6000602082019050818103600083015261185e81611822565b9050919050565b7f5072696365206e6f74206d657400000000000000000000000000000000000000600082015250565b600061189b600d836113ed565b91506118a682611865565b602082019050919050565b600060208201905081810360008301526118ca8161188e565b9050919050565b60006118dc826111d4565b91506118e7836111d4565b92508282019050808211156118ff576118fe6116d0565b5b92915050565b600060608201905061191a600083018661146a565b611927602083018561146a565b61193460408301846112b2565b949350505050565b60008115159050919050565b6119518161193c565b811461195c57600080fd5b50565b60008151905061196e81611948565b92915050565b60006020828403121561198a57611989611144565b5b60006119988482850161195f565b91505092915050565b60006040820190506119b660008301856112b2565b6119c360208301846112b2565b939250505056fea2646970667358221220507747734dc11a53dd020e1576b4e415001583102247ec1c72480f695a79691a64736f6c63430008140033",
  "linkReferences": {},
  "deployedLinkReferences": {}
}