{
  "_format": "hh-sol-artifact-1",
  "contractName": "NFTMintDN404",
  "sourceName": "contracts/Token.sol",
  "abi": [
    {
      "inputs": [
        {
          "internalType": "string",
          "name": "name_",
          "type": "string"
        },
        {
          "internalType": "string",
          "name": "symbol_",
          "type": "string"
        },
        {
          "internalType": "uint256",
          "name": "_MAX_SUPPLY",
          "type": "uint256"
        },
        {
          "internalType": "uint120",
          "name": "publicPrice_",
          "type": "uint120"
        },
        {
          "internalType": "uint96",
          "name": "initialTokenSupply",
          "type": "uint96"
        },
        {
          "internalType": "address",
          "name": "initialSupplyOwner",
          "type": "address"
        }
      ],
      "stateMutability": "nonpayable",
      "type": "constructor"
    },
    {
      "inputs": [],
      "name": "AlreadyInitialized",
      "type": "error"
    },
    {
      "inputs": [],
      "name": "ApprovalCallerNotOwnerNorApproved",
      "type": "error"
    },
    {
      "inputs": [],
      "name": "DNAlreadyInitialized",
      "type": "error"
    },
    {
      "inputs": [],
      "name": "ECDSAInvalidSignature",
      "type": "error"
    },
    {
      "inputs": [
        {
          "internalType": "uint256",
          "name": "length",
          "type": "uint256"
        }
      ],
      "name": "ECDSAInvalidSignatureLength",
      "type": "error"
    },
    {
      "inputs": [
        {
          "internalType": "bytes32",
          "name": "s",
          "type": "bytes32"
        }
      ],
      "name": "ECDSAInvalidSignatureS",
      "type": "error"
    },
    {
      "inputs": [
        {
          "internalType": "uint256",
          "name": "deadline",
          "type": "uint256"
        }
      ],
      "name": "ERC2612ExpiredSignature",
      "type": "error"
    },
    {
      "inputs": [
        {
          "internalType": "address",
          "name": "signer",
          "type": "address"
        },
        {
          "internalType": "address",
          "name": "owner",
          "type": "address"
        }
      ],
      "name": "ERC2612InvalidSigner",
      "type": "error"
    },
    {
      "inputs": [],
      "name": "ExceedsMaxMint",
      "type": "error"
    },
    {
      "inputs": [],
      "name": "InsufficientAllowance",
      "type": "error"
    },
    {
      "inputs": [],
      "name": "InsufficientBalance",
      "type": "error"
    },
    {
      "inputs": [
        {
          "internalType": "address",
          "name": "account",
          "type": "address"
        },
        {
          "internalType": "uint256",
          "name": "currentNonce",
          "type": "uint256"
        }
      ],
      "name": "InvalidAccountNonce",
      "type": "error"
    },
    {
      "inputs": [],
      "name": "InvalidPrice",
      "type": "error"
    },
    {
      "inputs": [],
      "name": "InvalidProof",
      "type": "error"
    },
    {
      "inputs": [],
      "name": "InvalidShortString",
      "type": "error"
    },
    {
      "inputs": [],
      "name": "LinkMirrorContractFailed",
      "type": "error"
    },
    {
      "inputs": [],
      "name": "MirrorAddressIsZero",
      "type": "error"
    },
    {
      "inputs": [],
      "name": "NewOwnerIsZeroAddress",
      "type": "error"
    },
    {
      "inputs": [],
      "name": "NoHandoverRequest",
      "type": "error"
    },
    {
      "inputs": [],
      "name": "NotLive",
      "type": "error"
    },
    {
      "inputs": [],
      "name": "SenderNotMirror",
      "type": "error"
    },
    {
      "inputs": [
        {
          "internalType": "string",
          "name": "str",
          "type": "string"
        }
      ],
      "name": "StringTooLong",
      "type": "error"
    },
    {
      "inputs": [],
      "name": "TokenDoesNotExist",
      "type": "error"
    },
    {
      "inputs": [],
      "name": "TotalSupplyOverflow",
      "type": "error"
    },
    {
      "inputs": [],
      "name": "TotalSupplyReached",
      "type": "error"
    },
    {
      "inputs": [],
      "name": "TransferCallerNotOwnerNorApproved",
      "type": "error"
    },
    {
      "inputs": [],
      "name": "TransferFromIncorrectOwner",
      "type": "error"
    },
    {
      "inputs": [],
      "name": "TransferToZeroAddress",
      "type": "error"
    },
    {
      "inputs": [],
      "name": "Unauthorized",
      "type": "error"
    },
    {
      "anonymous": false,
      "inputs": [
        {
          "indexed": true,
          "internalType": "address",
          "name": "owner",
          "type": "address"
        },
        {
          "indexed": true,
          "internalType": "address",
          "name": "spender",
          "type": "address"
        },
        {
          "indexed": false,
          "internalType": "uint256",
          "name": "amount",
          "type": "uint256"
        }
      ],
      "name": "Approval",
      "type": "event"
    },
    {
      "anonymous": false,
      "inputs": [],
      "name": "EIP712DomainChanged",
      "type": "event"
    },
    {
      "anonymous": false,
      "inputs": [
        {
          "indexed": true,
          "internalType": "address",
          "name": "pendingOwner",
          "type": "address"
        }
      ],
      "name": "OwnershipHandoverCanceled",
      "type": "event"
    },
    {
      "anonymous": false,
      "inputs": [
        {
          "indexed": true,
          "internalType": "address",
          "name": "pendingOwner",
          "type": "address"
        }
      ],
      "name": "OwnershipHandoverRequested",
      "type": "event"
    },
    {
      "anonymous": false,
      "inputs": [
        {
          "indexed": true,
          "internalType": "address",
          "name": "oldOwner",
          "type": "address"
        },
        {
          "indexed": true,
          "internalType": "address",
          "name": "newOwner",
          "type": "address"
        }
      ],
      "name": "OwnershipTransferred",
      "type": "event"
    },
    {
      "anonymous": false,
      "inputs": [
        {
          "indexed": true,
          "internalType": "address",
          "name": "target",
          "type": "address"
        },
        {
          "indexed": false,
          "internalType": "bool",
          "name": "status",
          "type": "bool"
        }
      ],
      "name": "SkipNFTSet",
      "type": "event"
    },
    {
      "anonymous": false,
      "inputs": [
        {
          "indexed": true,
          "internalType": "address",
          "name": "from",
          "type": "address"
        },
        {
          "indexed": true,
          "internalType": "address",
          "name": "to",
          "type": "address"
        },
        {
          "indexed": false,
          "internalType": "uint256",
          "name": "amount",
          "type": "uint256"
        }
      ],
      "name": "Transfer",
      "type": "event"
    },
    {
      "stateMutability": "payable",
      "type": "fallback"
    },
    {
      "inputs": [],
      "name": "DOMAIN_SEPARATOR",
      "outputs": [
        {
          "internalType": "bytes32",
          "name": "",
          "type": "bytes32"
        }
      ],
      "stateMutability": "view",
      "type": "function"
    },
    {
      "inputs": [],
      "name": "MAX_SUPPLY",
      "outputs": [
        {
          "internalType": "uint256",
          "name": "",
          "type": "uint256"
        }
      ],
      "stateMutability": "view",
      "type": "function"
    },
    {
      "inputs": [
        {
          "internalType": "address",
          "name": "owner",
          "type": "address"
        },
        {
          "internalType": "address",
          "name": "spender",
          "type": "address"
        }
      ],
      "name": "allowance",
      "outputs": [
        {
          "internalType": "uint256",
          "name": "",
          "type": "uint256"
        }
      ],
      "stateMutability": "view",
      "type": "function"
    },
    {
      "inputs": [
        {
          "internalType": "uint256",
          "name": "amount",
          "type": "uint256"
        },
        {
          "internalType": "bytes32[]",
          "name": "proof",
          "type": "bytes32[]"
        }
      ],
      "name": "allowlistMint",
      "outputs": [],
      "stateMutability": "payable",
      "type": "function"
    },
    {
      "inputs": [],
      "name": "allowlistPrice",
      "outputs": [
        {
          "internalType": "uint120",
          "name": "",
          "type": "uint120"
        }
      ],
      "stateMutability": "view",
      "type": "function"
    },
    {
      "inputs": [
        {
          "internalType": "address",
          "name": "spender",
          "type": "address"
        },
        {
          "internalType": "uint256",
          "name": "amount",
          "type": "uint256"
        }
      ],
      "name": "approve",
      "outputs": [
        {
          "internalType": "bool",
          "name": "",
          "type": "bool"
        }
      ],
      "stateMutability": "nonpayable",
      "type": "function"
    },
    {
      "inputs": [
        {
          "internalType": "address",
          "name": "owner",
          "type": "address"
        }
      ],
      "name": "balanceOf",
      "outputs": [
        {
          "internalType": "uint256",
          "name": "",
          "type": "uint256"
        }
      ],
      "stateMutability": "view",
      "type": "function"
    },
    {
      "inputs": [],
      "name": "cancelOwnershipHandover",
      "outputs": [],
      "stateMutability": "payable",
      "type": "function"
    },
    {
      "inputs": [
        {
          "internalType": "address",
          "name": "pendingOwner",
          "type": "address"
        }
      ],
      "name": "completeOwnershipHandover",
      "outputs": [],
      "stateMutability": "payable",
      "type": "function"
    },
    {
      "inputs": [],
      "name": "decimals",
      "outputs": [
        {
          "internalType": "uint8",
          "name": "",
          "type": "uint8"
        }
      ],
      "stateMutability": "pure",
      "type": "function"
    },
    {
      "inputs": [],
      "name": "eip712Domain",
      "outputs": [
        {
          "internalType": "bytes1",
          "name": "fields",
          "type": "bytes1"
        },
        {
          "internalType": "string",
          "name": "name",
          "type": "string"
        },
        {
          "internalType": "string",
          "name": "version",
          "type": "string"
        },
        {
          "internalType": "uint256",
          "name": "chainId",
          "type": "uint256"
        },
        {
          "internalType": "address",
          "name": "verifyingContract",
          "type": "address"
        },
        {
          "internalType": "bytes32",
          "name": "salt",
          "type": "bytes32"
        },
        {
          "internalType": "uint256[]",
          "name": "extensions",
          "type": "uint256[]"
        }
      ],
      "stateMutability": "view",
      "type": "function"
    },
    {
      "inputs": [
        {
          "internalType": "address",
          "name": "a",
          "type": "address"
        }
      ],
      "name": "getSkipNFT",
      "outputs": [
        {
          "internalType": "bool",
          "name": "",
          "type": "bool"
        }
      ],
      "stateMutability": "view",
      "type": "function"
    },
    {
      "inputs": [],
      "name": "getURI",
      "outputs": [
        {
          "internalType": "string",
          "name": "",
          "type": "string"
        }
      ],
      "stateMutability": "view",
      "type": "function"
    },
    {
      "inputs": [],
      "name": "live",
      "outputs": [
        {
          "internalType": "bool",
          "name": "",
          "type": "bool"
        }
      ],
      "stateMutability": "view",
      "type": "function"
    },
    {
      "inputs": [
        {
          "internalType": "uint256",
          "name": "amount",
          "type": "uint256"
        }
      ],
      "name": "mint",
      "outputs": [],
      "stateMutability": "payable",
      "type": "function"
    },
    {
      "inputs": [],
      "name": "mirrorERC721",
      "outputs": [
        {
          "internalType": "address",
          "name": "",
          "type": "address"
        }
      ],
      "stateMutability": "view",
      "type": "function"
    },
    {
      "inputs": [],
      "name": "name",
      "outputs": [
        {
          "internalType": "string",
          "name": "",
          "type": "string"
        }
      ],
      "stateMutability": "view",
      "type": "function"
    },
    {
      "inputs": [],
      "name": "nftTotalSupply",
      "outputs": [
        {
          "internalType": "uint256",
          "name": "",
          "type": "uint256"
        }
      ],
      "stateMutability": "view",
      "type": "function"
    },
    {
      "inputs": [
        {
          "internalType": "address",
          "name": "owner",
          "type": "address"
        }
      ],
      "name": "nftbalanceOf",
      "outputs": [
        {
          "internalType": "uint256",
          "name": "",
          "type": "uint256"
        }
      ],
      "stateMutability": "view",
      "type": "function"
    },
    {
      "inputs": [
        {
          "internalType": "address",
          "name": "owner",
          "type": "address"
        }
      ],
      "name": "nonces",
      "outputs": [
        {
          "internalType": "uint256",
          "name": "",
          "type": "uint256"
        }
      ],
      "stateMutability": "view",
      "type": "function"
    },
    {
      "inputs": [],
      "name": "numMinted",
      "outputs": [
        {
          "internalType": "uint256",
          "name": "",
          "type": "uint256"
        }
      ],
      "stateMutability": "view",
      "type": "function"
    },
    {
      "inputs": [],
      "name": "owner",
      "outputs": [
        {
          "internalType": "address",
          "name": "result",
          "type": "address"
        }
      ],
      "stateMutability": "view",
      "type": "function"
    },
    {
      "inputs": [
        {
          "internalType": "address",
          "name": "pendingOwner",
          "type": "address"
        }
      ],
      "name": "ownershipHandoverExpiresAt",
      "outputs": [
        {
          "internalType": "uint256",
          "name": "result",
          "type": "uint256"
        }
      ],
      "stateMutability": "view",
      "type": "function"
    },
    {
      "inputs": [
        {
          "internalType": "address",
          "name": "owner",
          "type": "address"
        },
        {
          "internalType": "address",
          "name": "spender",
          "type": "address"
        },
        {
          "internalType": "uint256",
          "name": "value",
          "type": "uint256"
        },
        {
          "internalType": "uint256",
          "name": "deadline",
          "type": "uint256"
        },
        {
          "internalType": "uint8",
          "name": "v",
          "type": "uint8"
        },
        {
          "internalType": "bytes32",
          "name": "r",
          "type": "bytes32"
        },
        {
          "internalType": "bytes32",
          "name": "s",
          "type": "bytes32"
        }
      ],
      "name": "permit",
      "outputs": [],
      "stateMutability": "nonpayable",
      "type": "function"
    },
    {
      "inputs": [],
      "name": "previewNextTokenId",
      "outputs": [
        {
          "internalType": "uint256",
          "name": "",
          "type": "uint256"
        }
      ],
      "stateMutability": "view",
      "type": "function"
    },
    {
      "inputs": [],
      "name": "publicPrice",
      "outputs": [
        {
          "internalType": "uint120",
          "name": "",
          "type": "uint120"
        }
      ],
      "stateMutability": "view",
      "type": "function"
    },
    {
      "inputs": [],
      "name": "renounceOwnership",
      "outputs": [],
      "stateMutability": "payable",
      "type": "function"
    },
    {
      "inputs": [],
      "name": "requestOwnershipHandover",
      "outputs": [],
      "stateMutability": "payable",
      "type": "function"
    },
    {
      "inputs": [
        {
          "internalType": "bytes32",
          "name": "allowlistRoot_",
          "type": "bytes32"
        }
      ],
      "name": "setAllowlist",
      "outputs": [],
      "stateMutability": "nonpayable",
      "type": "function"
    },
    {
      "inputs": [
        {
          "internalType": "uint120",
          "name": "allowlistPrice_",
          "type": "uint120"
        }
      ],
      "name": "setAllowlistPrice",
      "outputs": [],
      "stateMutability": "nonpayable",
      "type": "function"
    },
    {
      "inputs": [
        {
          "internalType": "string",
          "name": "baseURI_",
          "type": "string"
        }
      ],
      "name": "setBaseURI",
      "outputs": [],
      "stateMutability": "nonpayable",
      "type": "function"
    },
    {
      "inputs": [
        {
          "internalType": "uint120",
          "name": "publicPrice_",
          "type": "uint120"
        },
        {
          "internalType": "uint120",
          "name": "allowlistPrice_",
          "type": "uint120"
        }
      ],
      "name": "setPrices",
      "outputs": [],
      "stateMutability": "nonpayable",
      "type": "function"
    },
    {
      "inputs": [
        {
          "internalType": "bool",
          "name": "skipNFT",
          "type": "bool"
        }
      ],
      "name": "setSkipNFT",
      "outputs": [],
      "stateMutability": "nonpayable",
      "type": "function"
    },
    {
      "inputs": [],
      "name": "symbol",
      "outputs": [
        {
          "internalType": "string",
          "name": "",
          "type": "string"
        }
      ],
      "stateMutability": "view",
      "type": "function"
    },
    {
      "inputs": [],
      "name": "toggleLive",
      "outputs": [],
      "stateMutability": "nonpayable",
      "type": "function"
    },
    {
      "inputs": [
        {
          "internalType": "uint256",
          "name": "tokenId",
          "type": "uint256"
        }
      ],
      "name": "tokenURI",
      "outputs": [
        {
          "internalType": "string",
          "name": "result",
          "type": "string"
        }
      ],
      "stateMutability": "view",
      "type": "function"
    },
    {
      "inputs": [],
      "name": "totalSupply",
      "outputs": [
        {
          "internalType": "uint256",
          "name": "",
          "type": "uint256"
        }
      ],
      "stateMutability": "view",
      "type": "function"
    },
    {
      "inputs": [
        {
          "internalType": "address",
          "name": "to",
          "type": "address"
        },
        {
          "internalType": "uint256",
          "name": "amount",
          "type": "uint256"
        }
      ],
      "name": "transfer",
      "outputs": [
        {
          "internalType": "bool",
          "name": "",
          "type": "bool"
        }
      ],
      "stateMutability": "nonpayable",
      "type": "function"
    },
    {
      "inputs": [
        {
          "internalType": "address",
          "name": "from",
          "type": "address"
        },
        {
          "internalType": "address",
          "name": "to",
          "type": "address"
        },
        {
          "internalType": "uint256",
          "name": "amount",
          "type": "uint256"
        }
      ],
      "name": "transferFrom",
      "outputs": [
        {
          "internalType": "bool",
          "name": "",
          "type": "bool"
        }
      ],
      "stateMutability": "nonpayable",
      "type": "function"
    },
    {
      "inputs": [
        {
          "internalType": "address",
          "name": "newOwner",
          "type": "address"
        }
      ],
      "name": "transferOwnership",
      "outputs": [],
      "stateMutability": "payable",
      "type": "function"
    },
    {
      "inputs": [],
      "name": "withdraw",
      "outputs": [],
      "stateMutability": "nonpayable",
      "type": "function"
    },
    {
      "stateMutability": "payable",
      "type": "receive"
    }
  ],
  "bytecode": "0x6101606040523480156200001257600080fd5b5060405162007a7b38038062007a7b833981810160405281019062000038919062000bf4565b6040518060400160405280600b81526020017f455243343034546f6b656e000000000000000000000000000000000000000000815250806040518060400160405280600181526020017f3100000000000000000000000000000000000000000000000000000000000000815250620000bb6000836200023460201b90919060201c565b6101208181525050620000d96001826200023460201b90919060201c565b6101408181525050818051906020012060e08181525050808051906020012061010081815250504660a08181525050620001186200028c60201b60201c565b608081815250503073ffffffffffffffffffffffffffffffffffffffff1660c08173ffffffffffffffffffffffffffffffffffffffff16815250505050506200016733620002e960201b60201c565b856003908162000178919062000f0f565b5084600490816200018a919062000f0f565b508360098190555082600760006101000a8154816effffffffffffffffffffffffffffff02191690836effffffffffffffffffffffffffffff160217905550600033604051620001da906200091e565b620001e6919062001007565b604051809103906000f08015801562000203573d6000803e3d6000fd5b50905062000227836bffffffffffffffffffffffff168383620003cf60201b60201c565b505050505050506200121c565b60006020835110156200025a576200025283620006cd60201b60201c565b905062000286565b826200026c836200073a60201b60201c565b60000190816200027d919062000f0f565b5060ff60001b90505b92915050565b60007f8b73c3c69bb8fe3d512ecc4cf759cc79239f7b179b0ffacaa9a75d522b39400f60e051610100514630604051602001620002ce95949392919062001050565b60405160208183030381529060405280519060200120905090565b620002f96200074460201b60201c565b1562000377577fffffffffffffffffffffffffffffffffffffffffffffffffffffffff748739278054156200033657630dc149f06000526004601cfd5b8160601b60601c9150811560ff1b821781558160007f8be0079c531659141344cd1fd0a4f28419497f9722a3daafe3b4186f6b6457e0600080a350620003cc565b8060601b60601c9050807fffffffffffffffffffffffffffffffffffffffffffffffffffffffff74873927558060007f8be0079c531659141344cd1fd0a4f28419497f9722a3daafe3b4186f6b6457e0600080a35b50565b6000620003e16200074960201b60201c565b905060008160000160049054906101000a900463ffffffff1663ffffffff161462000438576040517fead4d2e400000000000000000000000000000000000000000000000000000000815260040160405180910390fd5b600073ffffffffffffffffffffffffffffffffffffffff168273ffffffffffffffffffffffffffffffffffffffff16036200049f576040517f39a84a7b00000000000000000000000000000000000000000000000000000000815260040160405180910390fd5b620004b0826200075a60201b60201c565b60018160000160046101000a81548163ffffffff021916908363ffffffff160217905550818160010160006101000a81548173ffffffffffffffffffffffffffffffffffffffff021916908373ffffffffffffffffffffffffffffffffffffffff1602179055506000841115620006c757600073ffffffffffffffffffffffffffffffffffffffff168373ffffffffffffffffffffffffffffffffffffffff160362000588576040517fea553b3400000000000000000000000000000000000000000000000000000000815260040160405180910390fd5b6b0de0b6b39983494c589bffff841115620005cf576040517fe5cfe95700000000000000000000000000000000000000000000000000000000815260040160405180910390fd5b8381600001600c6101000a8154816bffffffffffffffffffffffff02191690836bffffffffffffffffffffffff160217905550600062000615846200079060201b60201c565b9050848160000160146101000a8154816bffffffffffffffffffffffff02191690836bffffffffffffffffffffffff1602179055508373ffffffffffffffffffffffffffffffffffffffff16600073ffffffffffffffffffffffffffffffffffffffff167fddf252ad1be2c89b69c2b068fc378daa952ba7f163c4a11628f55a4df523b3ef87604051620006aa9190620010ad565b60405180910390a3620006c58460016200085160201b60201c565b505b50505050565b600080829050601f815111156200071d57826040517f305a27a90000000000000000000000000000000000000000000000000000000081526004016200071491906200111c565b60405180910390fd5b8051816200072b9062001172565b60001c1760001b915050919050565b6000819050919050565b600090565b600068a20d6e21d0e5255308905090565b630f4599e560005233602052602060006024601c6000855af1600160005114166200078d5763d125259c6000526004601cfd5b50565b600080620007a36200074960201b60201c565b90508060080160008473ffffffffffffffffffffffffffffffffffffffff1673ffffffffffffffffffffffffffffffffffffffff16815260200190815260200160002091506000600183600001600b9054906101000a900460ff161660ff16036200084b576000600190506200081f846200091360201b60201c565b156200082c576002811790505b8083600001600b6101000a81548160ff021916908360ff160217905550505b50919050565b600062000864836200079060201b60201c565b90508115156000600283600001600b9054906101000a900460ff161660ff161415151514620008be57600281600001600b8282829054906101000a900460ff161892506101000a81548160ff021916908360ff1602179055505b8273ffffffffffffffffffffffffffffffffffffffff167fb5a1de456fff688115a4f75380060c23c8532d14ff85f687cc871456d642039383604051620009069190620011ff565b60405180910390a2505050565b6000813b9050919050565b6114c880620065b383390190565b6000604051905090565b600080fd5b600080fd5b600080fd5b600080fd5b6000601f19601f8301169050919050565b7f4e487b7100000000000000000000000000000000000000000000000000000000600052604160045260246000fd5b62000995826200094a565b810181811067ffffffffffffffff82111715620009b757620009b66200095b565b5b80604052505050565b6000620009cc6200092c565b9050620009da82826200098a565b919050565b600067ffffffffffffffff821115620009fd57620009fc6200095b565b5b62000a08826200094a565b9050602081019050919050565b60005b8381101562000a3557808201518184015260208101905062000a18565b60008484015250505050565b600062000a5862000a5284620009df565b620009c0565b90508281526020810184848401111562000a775762000a7662000945565b5b62000a8484828562000a15565b509392505050565b600082601f83011262000aa45762000aa362000940565b5b815162000ab684826020860162000a41565b91505092915050565b6000819050919050565b62000ad48162000abf565b811462000ae057600080fd5b50565b60008151905062000af48162000ac9565b92915050565b60006effffffffffffffffffffffffffffff82169050919050565b62000b208162000afa565b811462000b2c57600080fd5b50565b60008151905062000b408162000b15565b92915050565b60006bffffffffffffffffffffffff82169050919050565b62000b698162000b46565b811462000b7557600080fd5b50565b60008151905062000b898162000b5e565b92915050565b600073ffffffffffffffffffffffffffffffffffffffff82169050919050565b600062000bbc8262000b8f565b9050919050565b62000bce8162000baf565b811462000bda57600080fd5b50565b60008151905062000bee8162000bc3565b92915050565b60008060008060008060c0878903121562000c145762000c1362000936565b5b600087015167ffffffffffffffff81111562000c355762000c346200093b565b5b62000c4389828a0162000a8c565b965050602087015167ffffffffffffffff81111562000c675762000c666200093b565b5b62000c7589828a0162000a8c565b955050604062000c8889828a0162000ae3565b945050606062000c9b89828a0162000b2f565b935050608062000cae89828a0162000b78565b92505060a062000cc189828a0162000bdd565b9150509295509295509295565b600081519050919050565b7f4e487b7100000000000000000000000000000000000000000000000000000000600052602260045260246000fd5b6000600282049050600182168062000d2157607f821691505b60208210810362000d375762000d3662000cd9565b5b50919050565b60008190508160005260206000209050919050565b60006020601f8301049050919050565b600082821b905092915050565b60006008830262000da17fffffffffffffffffffffffffffffffffffffffffffffffffffffffffffffffff8262000d62565b62000dad868362000d62565b95508019841693508086168417925050509392505050565b6000819050919050565b600062000df062000dea62000de48462000abf565b62000dc5565b62000abf565b9050919050565b6000819050919050565b62000e0c8362000dcf565b62000e2462000e1b8262000df7565b84845462000d6f565b825550505050565b600090565b62000e3b62000e2c565b62000e4881848462000e01565b505050565b5b8181101562000e705762000e6460008262000e31565b60018101905062000e4e565b5050565b601f82111562000ebf5762000e898162000d3d565b62000e948462000d52565b8101602085101562000ea4578190505b62000ebc62000eb38562000d52565b83018262000e4d565b50505b505050565b600082821c905092915050565b600062000ee46000198460080262000ec4565b1980831691505092915050565b600062000eff838362000ed1565b9150826002028217905092915050565b62000f1a8262000cce565b67ffffffffffffffff81111562000f365762000f356200095b565b5b62000f42825462000d08565b62000f4f82828562000e74565b600060209050601f83116001811462000f87576000841562000f72578287015190505b62000f7e858262000ef1565b86555062000fee565b601f19841662000f978662000d3d565b60005b8281101562000fc15784890151825560018201915060208501945060208101905062000f9a565b8683101562000fe1578489015162000fdd601f89168262000ed1565b8355505b6001600288020188555050505b505050505050565b620010018162000baf565b82525050565b60006020820190506200101e600083018462000ff6565b92915050565b6000819050919050565b620010398162001024565b82525050565b6200104a8162000abf565b82525050565b600060a0820190506200106760008301886200102e565b6200107660208301876200102e565b6200108560408301866200102e565b6200109460608301856200103f565b620010a3608083018462000ff6565b9695505050505050565b6000602082019050620010c460008301846200103f565b92915050565b600082825260208201905092915050565b6000620010e88262000cce565b620010f48185620010ca565b93506200110681856020860162000a15565b62001111816200094a565b840191505092915050565b60006020820190508181036000830152620011388184620010db565b905092915050565b600081519050919050565b6000819050602082019050919050565b600062001169825162001024565b80915050919050565b60006200117f8262001140565b826200118b846200114b565b905062001198816200115b565b92506020821015620011db57620011d67fffffffffffffffffffffffffffffffffffffffffffffffffffffffffffffffff8360200360080262000d62565b831692505b5050919050565b60008115159050919050565b620011f981620011e2565b82525050565b6000602082019050620012166000830184620011ee565b92915050565b60805160a05160c05160e05161010051610120516101405161533c620012776000396000613c3c01526000613c0101526000613e8a01526000613e69015260006135380152600061358e015260006135b7015261533c6000f3fe60806040526004361061024a5760003560e01c80637bc9200e11610139578063c364f15e116100b6578063d95cd6ea1161007a578063d95cd6ea14610fcf578063dd62ed3e1461100c578063ec0d755714611049578063f04e283e14611060578063f2fde38b1461107c578063fee81cf41461109857610251565b8063c364f15e14610eec578063c87b56dd14610f15578063cf1c73b214610f52578063d505accf14610f7b578063d52079b414610fa457610251565b8063957aa58c116100fd578063957aa58c14610e1257806395d89b4114610e3d578063a0712d6814610e68578063a9059cbb14610e84578063a945bf8014610ec157610251565b80637bc9200e14610d325780637ecebe0014610d4e57806384b0196e14610d8b5780638da5cb5b14610dbc57806390967a5214610de757610251565b8063313ce567116101c757806354d1f13d1161018b57806354d1f13d14610c8d57806355f804b314610c9757806370a0823114610cc0578063715018a614610cfd5780637754305c14610d0757610251565b8063313ce56714610bca57806332cb6b0c14610bf55780633644e51514610c205780633ccfd60b14610c4b5780634ef41efc14610c6257610251565b806318160ddd1161020e57806318160ddd14610af257806323b872dd14610b1d5780632569296214610b5a578063274e430b14610b645780632a6a935d14610ba157610251565b806306fdde0314610a0b57806307c8c64014610a36578063095ea7b314610a5f5780630bb2378414610a9c57806317b9c06a14610ac757610251565b3661025157005b600061025b6110d5565b9050600060e061026b60006110e6565b901c905063e985e9c581036103d9578160010160009054906101000a900473ffffffffffffffffffffffffffffffffffffffff1673ffffffffffffffffffffffffffffffffffffffff163373ffffffffffffffffffffffffffffffffffffffff1614610303576040517fce5a776b00000000000000000000000000000000000000000000000000000000815260040160405180910390fd5b60446000369050101561031557600080fd5b600061032160046110e6565b9050600061032f60246110e6565b90506103d68460030160008473ffffffffffffffffffffffffffffffffffffffff1673ffffffffffffffffffffffffffffffffffffffff16815260200190815260200160002060008373ffffffffffffffffffffffffffffffffffffffff1673ffffffffffffffffffffffffffffffffffffffff16815260200190815260200160002060009054906101000a900460ff166103cb5760006103ce565b60015b60ff166110f1565b50505b636352211e81036104b6578160010160009054906101000a900473ffffffffffffffffffffffffffffffffffffffff1673ffffffffffffffffffffffffffffffffffffffff163373ffffffffffffffffffffffffffffffffffffffff161461046d576040517fce5a776b00000000000000000000000000000000000000000000000000000000815260040160405180910390fd5b60246000369050101561047f57600080fd5b600061048b60046110e6565b90506104b4610499826110fb565b73ffffffffffffffffffffffffffffffffffffffff166110f1565b505b63e5eb36c881036105af578160010160009054906101000a900473ffffffffffffffffffffffffffffffffffffffff1673ffffffffffffffffffffffffffffffffffffffff163373ffffffffffffffffffffffffffffffffffffffff161461054a576040517fce5a776b00000000000000000000000000000000000000000000000000000000815260040160405180910390fd5b60846000369050101561055c57600080fd5b600061056860046110e6565b9050600061057660246110e6565b9050600061058460446110e6565b9050600061059260646110e6565b90506105a08484848461114c565b6105aa60016110f1565b505050505b63813500fc810361069b578160010160009054906101000a900473ffffffffffffffffffffffffffffffffffffffff1673ffffffffffffffffffffffffffffffffffffffff163373ffffffffffffffffffffffffffffffffffffffff1614610643576040517fce5a776b00000000000000000000000000000000000000000000000000000000815260040160405180910390fd5b60646000369050101561065557600080fd5b600061066160046110e6565b905060008061067060246110e6565b14159050600061068060446110e6565b905061068d838383611746565b61069760016110f1565b5050505b63d10b6e0c8103610798578160010160009054906101000a900473ffffffffffffffffffffffffffffffffffffffff1673ffffffffffffffffffffffffffffffffffffffff163373ffffffffffffffffffffffffffffffffffffffff161461072f576040517fce5a776b00000000000000000000000000000000000000000000000000000000815260040160405180910390fd5b60646000369050101561074157600080fd5b600061074d60046110e6565b9050600061075b60246110e6565b9050600061076960446110e6565b90506107946107798484846117e8565b73ffffffffffffffffffffffffffffffffffffffff166110f1565b5050505b63081812fc8103610875578160010160009054906101000a900473ffffffffffffffffffffffffffffffffffffffff1673ffffffffffffffffffffffffffffffffffffffff163373ffffffffffffffffffffffffffffffffffffffff161461082c576040517fce5a776b00000000000000000000000000000000000000000000000000000000815260040160405180910390fd5b60246000369050101561083e57600080fd5b600061084a60046110e6565b9050610873610858826119a5565b73ffffffffffffffffffffffffffffffffffffffff166110f1565b505b63f5b100ea810361093c578160010160009054906101000a900473ffffffffffffffffffffffffffffffffffffffff1673ffffffffffffffffffffffffffffffffffffffff163373ffffffffffffffffffffffffffffffffffffffff1614610909576040517fce5a776b00000000000000000000000000000000000000000000000000000000815260040160405180910390fd5b60246000369050101561091b57600080fd5b600061092760046110e6565b905061093a61093582611a2a565b6110f1565b505b63e2c7928181036109f3578160010160009054906101000a900473ffffffffffffffffffffffffffffffffffffffff1673ffffffffffffffffffffffffffffffffffffffff163373ffffffffffffffffffffffffffffffffffffffff16146109d0576040517fce5a776b00000000000000000000000000000000000000000000000000000000815260040160405180910390fd5b6004600036905010156109e257600080fd5b6109f26109ed611a95565b6110f1565b5b63b7a94eb88103610a0957610a0860016110f1565b5b005b348015610a1757600080fd5b50610a20611abe565b604051610a2d91906143cc565b60405180910390f35b348015610a4257600080fd5b50610a5d6004803603810190610a58919061443f565b611b50565b005b348015610a6b57600080fd5b50610a866004803603810190610a819190614513565b611bca565b604051610a93919061456e565b60405180910390f35b348015610aa857600080fd5b50610ab1611cca565b604051610abe9190614598565b60405180910390f35b348015610ad357600080fd5b50610adc611cd9565b604051610ae99190614598565b60405180910390f35b348015610afe57600080fd5b50610b07611ce8565b604051610b149190614598565b60405180910390f35b348015610b2957600080fd5b50610b446004803603810190610b3f91906145b3565b611d21565b604051610b51919061456e565b60405180910390f35b610b62611eb0565b005b348015610b7057600080fd5b50610b8b6004803603810190610b869190614606565b611f04565b604051610b98919061456e565b60405180910390f35b348015610bad57600080fd5b50610bc86004803603810190610bc3919061465f565b611fa6565b005b348015610bd657600080fd5b50610bdf611fb3565b604051610bec91906146a8565b60405180910390f35b348015610c0157600080fd5b50610c0a611fbc565b604051610c179190614598565b60405180910390f35b348015610c2c57600080fd5b50610c35611fc2565b604051610c4291906146dc565b60405180910390f35b348015610c5757600080fd5b50610c60611fd1565b005b348015610c6e57600080fd5b50610c77611fe4565b604051610c849190614706565b60405180910390f35b610c95612017565b005b348015610ca357600080fd5b50610cbe6004803603810190610cb99190614786565b612053565b005b348015610ccc57600080fd5b50610ce76004803603810190610ce29190614606565b612071565b604051610cf49190614598565b60405180910390f35b610d056120ec565b005b348015610d1357600080fd5b50610d1c612100565b604051610d2991906143cc565b60405180910390f35b610d4c6004803603810190610d479190614829565b612192565b005b348015610d5a57600080fd5b50610d756004803603810190610d709190614606565b61231f565b604051610d829190614598565b60405180910390f35b348015610d9757600080fd5b50610da0612331565b604051610db39796959493929190614982565b60405180910390f35b348015610dc857600080fd5b50610dd16123db565b604051610dde9190614706565b60405180910390f35b348015610df357600080fd5b50610dfc612404565b604051610e099190614a15565b60405180910390f35b348015610e1e57600080fd5b50610e27612425565b604051610e34919061456e565b60405180910390f35b348015610e4957600080fd5b50610e52612438565b604051610e5f91906143cc565b60405180910390f35b610e826004803603810190610e7d9190614a30565b6124ca565b005b348015610e9057600080fd5b50610eab6004803603810190610ea69190614513565b6125eb565b604051610eb8919061456e565b60405180910390f35b348015610ecd57600080fd5b50610ed6612602565b604051610ee39190614a15565b60405180910390f35b348015610ef857600080fd5b50610f136004803603810190610f0e9190614a5d565b612623565b005b348015610f2157600080fd5b50610f3c6004803603810190610f379190614a30565b612665565b604051610f4991906143cc565b60405180910390f35b348015610f5e57600080fd5b50610f796004803603810190610f749190614ab6565b6126b0565b005b348015610f8757600080fd5b50610fa26004803603810190610f9d9190614b0f565b6126c2565b005b348015610fb057600080fd5b50610fb96128f4565b604051610fc69190614598565b60405180910390f35b348015610fdb57600080fd5b50610ff66004803603810190610ff19190614606565b6128fa565b6040516110039190614598565b60405180910390f35b34801561101857600080fd5b50611033600480360381019061102e9190614bb1565b61290c565b6040516110409190614598565b60405180910390f35b34801561105557600080fd5b5061105e61299c565b005b61107a60048036038101906110759190614606565b6129f7565b005b61109660048036038101906110919190614606565b612a38565b005b3480156110a457600080fd5b506110bf60048036038101906110ba9190614606565b612a62565b6040516110cc9190614598565b60405180910390f35b600068a20d6e21d0e5255308905090565b600081359050919050565b8060005260206000f35b600061110682612a7d565b61113c576040517fceea21b600000000000000000000000000000000000000000000000000000000815260040160405180910390fd5b61114582612abe565b9050919050565b60006111566110d5565b9050600073ffffffffffffffffffffffffffffffffffffffff168473ffffffffffffffffffffffffffffffffffffffff16036111be576040517fea553b3400000000000000000000000000000000000000000000000000000000815260040160405180910390fd5b60008160020160006111db846007016111d688612b29565b612b37565b63ffffffff1663ffffffff16815260200190815260200160002060009054906101000a900473ffffffffffffffffffffffffffffffffffffffff1690508073ffffffffffffffffffffffffffffffffffffffff168673ffffffffffffffffffffffffffffffffffffffff161461127d576040517fa114810000000000000000000000000000000000000000000000000000000000815260040160405180910390fd5b8573ffffffffffffffffffffffffffffffffffffffff168373ffffffffffffffffffffffffffffffffffffffff16146113dc578160030160008773ffffffffffffffffffffffffffffffffffffffff1673ffffffffffffffffffffffffffffffffffffffff16815260200190815260200160002060008473ffffffffffffffffffffffffffffffffffffffff1673ffffffffffffffffffffffffffffffffffffffff16815260200190815260200160002060009054906101000a900460ff166113db5781600401600085815260200190815260200160002060009054906101000a900473ffffffffffffffffffffffffffffffffffffffff1673ffffffffffffffffffffffffffffffffffffffff168373ffffffffffffffffffffffffffffffffffffffff16146113da576040517f59c896be00000000000000000000000000000000000000000000000000000000815260040160405180910390fd5b5b5b60006113e787612b65565b905060006113f487612b65565b9050670de0b6b3a76400008260000160148282829054906101000a90046bffffffffffffffffffffffff166114299190614c38565b92506101000a8154816bffffffffffffffffffffffff02191690836bffffffffffffffffffffffff160217905550670de0b6b3a76400008160000160148282829054906101000a90046bffffffffffffffffffffffff160192506101000a8154816bffffffffffffffffffffffff02191690836bffffffffffffffffffffffff1602179055506114ce846007016114bf88612b29565b6114c9848b612c14565b612d10565b83600401600087815260200190815260200160002060006101000a81549073ffffffffffffffffffffffffffffffffffffffff0219169055600061158f8560060160008b73ffffffffffffffffffffffffffffffffffffffff1673ffffffffffffffffffffffffffffffffffffffff16815260200190815260200160002084600001601081819054906101000a900463ffffffff166001900391906101000a81548163ffffffff021916908363ffffffff160217905563ffffffff16612b37565b63ffffffff1690506115fc8560060160008b73ffffffffffffffffffffffffffffffffffffffff1673ffffffffffffffffffffffffffffffffffffffff1681526020019081526020016000206115f0876007016115eb8b612d44565b612b37565b63ffffffff1683612d10565b600082600001601081819054906101000a900463ffffffff168092919060010191906101000a81548163ffffffff021916908363ffffffff16021790555063ffffffff16905061166c8660070161165284612d44565b611667896007016116628d612d44565b612b37565b612d10565b6116b78660060160008b73ffffffffffffffffffffffffffffffffffffffff1673ffffffffffffffffffffffffffffffffffffffff168152602001908152602001600020828a612d10565b6116cd866007016116c78a612d44565b83612d10565b50508673ffffffffffffffffffffffffffffffffffffffff168873ffffffffffffffffffffffffffffffffffffffff167fddf252ad1be2c89b69c2b068fc378daa952ba7f163c4a11628f55a4df523b3ef670de0b6b3a76400006040516117349190614598565b60405180910390a35050505050505050565b8161174f6110d5565b60030160008373ffffffffffffffffffffffffffffffffffffffff1673ffffffffffffffffffffffffffffffffffffffff16815260200190815260200160002060008573ffffffffffffffffffffffffffffffffffffffff1673ffffffffffffffffffffffffffffffffffffffff16815260200190815260200160002060006101000a81548160ff021916908315150217905550505050565b6000806117f36110d5565b905060008160020160006118128460070161180d89612b29565b612b37565b63ffffffff1663ffffffff16815260200190815260200160002060009054906101000a900473ffffffffffffffffffffffffffffffffffffffff1690508073ffffffffffffffffffffffffffffffffffffffff168473ffffffffffffffffffffffffffffffffffffffff1614611945578160030160008273ffffffffffffffffffffffffffffffffffffffff1673ffffffffffffffffffffffffffffffffffffffff16815260200190815260200160002060008573ffffffffffffffffffffffffffffffffffffffff1673ffffffffffffffffffffffffffffffffffffffff16815260200190815260200160002060009054906101000a900460ff16611944576040517fcfb3b94200000000000000000000000000000000000000000000000000000000815260040160405180910390fd5b5b8582600401600087815260200190815260200160002060006101000a81548173ffffffffffffffffffffffffffffffffffffffff021916908373ffffffffffffffffffffffffffffffffffffffff16021790555080925050509392505050565b60006119b082612a7d565b6119e6576040517fceea21b600000000000000000000000000000000000000000000000000000000815260040160405180910390fd5b6119ee6110d5565b600401600083815260200190815260200160002060009054906101000a900473ffffffffffffffffffffffffffffffffffffffff169050919050565b6000611a346110d5565b60080160008373ffffffffffffffffffffffffffffffffffffffff1673ffffffffffffffffffffffffffffffffffffffff16815260200190815260200160002060000160109054906101000a900463ffffffff1663ffffffff169050919050565b6000611a9f6110d5565b60000160089054906101000a900463ffffffff1663ffffffff16905090565b606060038054611acd90614ca7565b80601f0160208091040260200160405190810160405280929190818152602001828054611af990614ca7565b8015611b465780601f10611b1b57610100808354040283529160200191611b46565b820191906000526020600020905b815481529060010190602001808311611b2957829003601f168201915b5050505050905090565b611b58612d54565b81600760006101000a8154816effffffffffffffffffffffffffffff02191690836effffffffffffffffffffffffffffff160217905550806007600f6101000a8154816effffffffffffffffffffffffffffff02191690836effffffffffffffffffffffffffffff1602179055505050565b600080611bd56110d5565b9050828160050160003373ffffffffffffffffffffffffffffffffffffffff1673ffffffffffffffffffffffffffffffffffffffff16815260200190815260200160002060008673ffffffffffffffffffffffffffffffffffffffff1673ffffffffffffffffffffffffffffffffffffffff168152602001908152602001600020819055508373ffffffffffffffffffffffffffffffffffffffff163373ffffffffffffffffffffffffffffffffffffffff167f8c5be1e5ebec7d5bd14f71427d1e84f3dd0314c0f7b2291e5b200ac8c7c3b92585604051611cb79190614598565b60405180910390a3600191505092915050565b6000611cd4611a95565b905090565b6000611ce3612d8c565b905090565b6000611cf26110d5565b600001600c9054906101000a90046bffffffffffffffffffffffff166bffffffffffffffffffffffff16905090565b600080611d2c6110d5565b905060008160050160008773ffffffffffffffffffffffffffffffffffffffff1673ffffffffffffffffffffffffffffffffffffffff16815260200190815260200160002060003373ffffffffffffffffffffffffffffffffffffffff1673ffffffffffffffffffffffffffffffffffffffff1681526020019081526020016000205490507fffffffffffffffffffffffffffffffffffffffffffffffffffffffffffffffff8114611e985780841115611e12576040517f13be252b00000000000000000000000000000000000000000000000000000000815260040160405180910390fd5b8381038260050160008873ffffffffffffffffffffffffffffffffffffffff1673ffffffffffffffffffffffffffffffffffffffff16815260200190815260200160002060003373ffffffffffffffffffffffffffffffffffffffff1673ffffffffffffffffffffffffffffffffffffffff168152602001908152602001600020819055505b611ea3868686612db5565b6001925050509392505050565b6000611eba613467565b67ffffffffffffffff164201905063389a75e1600c5233600052806020600c2055337fdbf36a107da19e49527a7176a1babf963b4b0ff8cde35ee35d6cd8f1f9ac7e1d600080a250565b600080611f0f6110d5565b60080160008473ffffffffffffffffffffffffffffffffffffffff1673ffffffffffffffffffffffffffffffffffffffff16815260200190815260200160002090506000600182600001600b9054906101000a900460ff161660ff1603611f8157611f7983613472565b915050611fa1565b6000600282600001600b9054906101000a900460ff161660ff1614159150505b919050565b611fb0338261347d565b50565b60006012905090565b60095481565b6000611fcc613534565b905090565b611fd9612d54565b611fe2336135eb565b565b6000611fee6110d5565b60010160009054906101000a900473ffffffffffffffffffffffffffffffffffffffff16905090565b63389a75e1600c523360005260006020600c2055337ffa7b8eab7da67f412cc9575ed43464468f9bfbae89d1675917346ca6d8fe3c92600080a2565b61205b612d54565b81816005918261206c929190614ebe565b505050565b600061207b6110d5565b60080160008373ffffffffffffffffffffffffffffffffffffffff1673ffffffffffffffffffffffffffffffffffffffff16815260200190815260200160002060000160149054906101000a90046bffffffffffffffffffffffff166bffffffffffffffffffffffff169050919050565b6120f4612d54565b6120fe600061360a565b565b60606005805461210f90614ca7565b80601f016020809104026020016040519081016040528092919081815260200182805461213b90614ca7565b80156121885780601f1061215d57610100808354040283529160200191612188565b820191906000526020600020905b81548152906001019060200180831161216b57829003601f168201915b5050505050905090565b6007600f9054906101000a90046effffffffffffffffffffffffffffff166effffffffffffffffffffffffffffff16836007601e9054906101000a900460ff16612208576040517fbaf13b3f00000000000000000000000000000000000000000000000000000000815260040160405180910390fd5b3481836122159190614f8e565b1461224b576040517ebfc92100000000000000000000000000000000000000000000000000000000815260040160405180910390fd5b6009548160085461225c9190614fd0565b1115612294576040517f7be9badb00000000000000000000000000000000000000000000000000000000815260040160405180910390fd5b6122c88484600654336040516020016122ad919061504c565b604051602081830303815290604052805190602001206136d2565b6122fe576040517f09bde33900000000000000000000000000000000000000000000000000000000815260040160405180910390fd5b60086000815460010191905081905550612318338661372a565b5050505050565b600061232a82613baf565b9050919050565b600060608060008060006060612345613bf8565b61234d613c33565b46306000801b600067ffffffffffffffff81111561236e5761236d614ce3565b5b60405190808252806020026020018201604052801561239c5781602001602082028036833780820191505090505b507f0f00000000000000000000000000000000000000000000000000000000000000959493929190965096509650965096509650965090919293949596565b60007fffffffffffffffffffffffffffffffffffffffffffffffffffffffff7487392754905090565b6007600f9054906101000a90046effffffffffffffffffffffffffffff1681565b6007601e9054906101000a900460ff1681565b60606004805461244790614ca7565b80601f016020809104026020016040519081016040528092919081815260200182805461247390614ca7565b80156124c05780601f10612495576101008083540402835291602001916124c0565b820191906000526020600020905b8154815290600101906020018083116124a357829003601f168201915b5050505050905090565b600760009054906101000a90046effffffffffffffffffffffffffffff166effffffffffffffffffffffffffffff16816007601e9054906101000a900460ff16612540576040517fbaf13b3f00000000000000000000000000000000000000000000000000000000815260040160405180910390fd5b34818361254d9190614f8e565b14612583576040517ebfc92100000000000000000000000000000000000000000000000000000000815260040160405180910390fd5b600954816008546125949190614fd0565b11156125cc576040517f7be9badb00000000000000000000000000000000000000000000000000000000815260040160405180910390fd5b600860008154600101919050819055506125e6338461372a565b505050565b60006125f8338484612db5565b6001905092915050565b600760009054906101000a90046effffffffffffffffffffffffffffff1681565b61262b612d54565b806007600f6101000a8154816effffffffffffffffffffffffffffff02191690836effffffffffffffffffffffffffffff16021790555050565b606060006005805461267690614ca7565b9050146126ab57600561268883613c6e565b604051602001612699929190615126565b60405160208183030381529060405290505b919050565b6126b8612d54565b8060068190555050565b8342111561270757836040517f627913020000000000000000000000000000000000000000000000000000000081526004016126fe9190614598565b60405180910390fd5b60007f6e71edae12b1b97f4d1f60370fef10105fa2faae0126114a169c64845d6126c98888886127368c613cbf565b8960405160200161274c9695949392919061514a565b604051602081830303815290604052805190602001209050600061276f82613d16565b9050600061277f82878787613d30565b90508973ffffffffffffffffffffffffffffffffffffffff168173ffffffffffffffffffffffffffffffffffffffff16146127f357808a6040517f4b800e460000000000000000000000000000000000000000000000000000000081526004016127ea9291906151ab565b60405180910390fd5b60006127fd6110d5565b9050888160050160008d73ffffffffffffffffffffffffffffffffffffffff1673ffffffffffffffffffffffffffffffffffffffff16815260200190815260200160002060008c73ffffffffffffffffffffffffffffffffffffffff1673ffffffffffffffffffffffffffffffffffffffff168152602001908152602001600020819055508973ffffffffffffffffffffffffffffffffffffffff168b73ffffffffffffffffffffffffffffffffffffffff167f8c5be1e5ebec7d5bd14f71427d1e84f3dd0314c0f7b2291e5b200ac8c7c3b9258b6040516128df9190614598565b60405180910390a35050505050505050505050565b60085481565b600061290582611a2a565b9050919050565b60006129166110d5565b60050160008473ffffffffffffffffffffffffffffffffffffffff1673ffffffffffffffffffffffffffffffffffffffff16815260200190815260200160002060008373ffffffffffffffffffffffffffffffffffffffff1673ffffffffffffffffffffffffffffffffffffffff16815260200190815260200160002054905092915050565b6129a4612d54565b6007601e9054906101000a900460ff16156129d95760006007601e6101000a81548160ff0219169083151502179055506129f5565b60016007601e6101000a81548160ff0219169083151502179055505b565b6129ff612d54565b63389a75e1600c52806000526020600c208054421115612a2757636f5e88186000526004601cfd5b6000815550612a358161360a565b50565b612a40612d54565b8060601b612a5657637448fbae6000526004601cfd5b612a5f8161360a565b50565b600063389a75e1600c52816000526020600c20549050919050565b60008073ffffffffffffffffffffffffffffffffffffffff16612a9f83612abe565b73ffffffffffffffffffffffffffffffffffffffff1614159050919050565b600080612ac96110d5565b9050806002016000612ae683600701612ae187612b29565b612b37565b63ffffffff1663ffffffff16815260200190815260200160002060009054906101000a900473ffffffffffffffffffffffffffffffffffffffff16915050919050565b6000600182901b9050919050565b6000600560078316901b836000016000600385901c815260200190815260200160002054901c905092915050565b600080612b706110d5565b90508060080160008473ffffffffffffffffffffffffffffffffffffffff1673ffffffffffffffffffffffffffffffffffffffff16815260200190815260200160002091506000600183600001600b9054906101000a900460ff161660ff1603612c0e57600060019050612be384613472565b15612bef576002811790505b8083600001600b6101000a81548160ff021916908360ff160217905550505b50919050565b600080612c1f6110d5565b905083600001600c9054906101000a900463ffffffff16915060008263ffffffff1603612d095780600001600081819054906101000a900463ffffffff16612c66906151e4565b91906101000a81548163ffffffff021916908363ffffffff160217905591508184600001600c6101000a81548163ffffffff021916908363ffffffff160217905550828160020160008463ffffffff1663ffffffff16815260200190815260200160002060006101000a81548173ffffffffffffffffffffffffffffffffffffffff021916908373ffffffffffffffffffffffffffffffffffffffff1602179055505b5092915050565b826020528160031c60005260406000206007831660051b815463ffffffff8482841c188116831b8218845550505050505050565b600060018083901b019050919050565b7fffffffffffffffffffffffffffffffffffffffffffffffffffffffff74873927543314612d8a576382b429006000526004601cfd5b565b6000612d966110d5565b60000160049054906101000a900463ffffffff1663ffffffff16905090565b600073ffffffffffffffffffffffffffffffffffffffff168273ffffffffffffffffffffffffffffffffffffffff1603612e1b576040517fea553b3400000000000000000000000000000000000000000000000000000000815260040160405180910390fd5b6000612e256110d5565b90506000612e3285612b65565b90506000612e3f85612b65565b9050612e496142ec565b8260000160109054906101000a900463ffffffff1663ffffffff168160800181815250508160000160109054906101000a900463ffffffff1663ffffffff168160a00181815250508260000160149054906101000a90046bffffffffffffffffffffffff166bffffffffffffffffffffffff168160400181815250508060400151851115612f03576040517ff4d678b800000000000000000000000000000000000000000000000000000000815260040160405180910390fd5b8481604001818151039150818152505080604001518360000160146101000a8154816bffffffffffffffffffffffff02191690836bffffffffffffffffffffffff160217905550848260000160149054906101000a90046bffffffffffffffffffffffff166bffffffffffffffffffffffff160181606001818152508260000160146101000a8154816bffffffffffffffffffffffff02191690836bffffffffffffffffffffffff160217905550612fdb8160800151670de0b6b3a7640000836040015181612fd557612fd4615210565b5b04613d60565b8160000181815250506000600283600001600b9054906101000a900460ff161660ff160361307f578573ffffffffffffffffffffffffffffffffffffffff168773ffffffffffffffffffffffffffffffffffffffff160361304b5780600001518160800151038160a00181815250505b613075670de0b6b3a764000082606001518161306a57613069615210565b5b048260a00151613d60565b8160200181815250505b60006130948260200151836000015101613d71565b905060008260000151146131d75760008560060160008a73ffffffffffffffffffffffffffffffffffffffff1673ffffffffffffffffffffffffffffffffffffffff1681526020019081526020016000209050600083608001519050600084600001518203905084600001518860000160088282829054906101000a900463ffffffff160392506101000a81548163ffffffff021916908363ffffffff160217905550808760000160106101000a81548163ffffffff021916908363ffffffff1602179055505b600061316e848460019003945084612b37565b63ffffffff1690506131868960070182600080613d9e565b88600401600082815260200190815260200160002060006101000a81549073ffffffffffffffffffffffffffffffffffffffff02191690556131cb858d836001613de4565b5080820361315b575050505b60008260200151146133bc5760008560060160008973ffffffffffffffffffffffffffffffffffffffff1673ffffffffffffffffffffffffffffffffffffffff168152602001908152602001600020905060008360a00151905060008460200151820190506000613248878c612c14565b90506000670de0b6b3a76400008a600001600c9054906101000a90046bffffffffffffffffffffffff166bffffffffffffffffffffffff168161328e5761328d615210565b5b04905060008a60000160049054906101000a900463ffffffff1663ffffffff16905087602001518b60000160088282829054906101000a900463ffffffff160192506101000a81548163ffffffff021916908363ffffffff160217905550838960000160106101000a81548163ffffffff021916908363ffffffff1602179055505b5b60006133288c60070161332384612b29565b612b37565b63ffffffff161461334b578181600101915081111561334657600190505b613311565b613356868683612d10565b61336b8b600701828588806001019950613d9e565b613378878e836000613de4565b8181600101915081111561338b57600190505b83850361331057808b60000160046101000a81548163ffffffff021916908363ffffffff1602179055505050505050505b6000816000015151146133f8576133f7818660010160009054906101000a900473ffffffffffffffffffffffffffffffffffffffff16613e06565b5b508573ffffffffffffffffffffffffffffffffffffffff168773ffffffffffffffffffffffffffffffffffffffff167fddf252ad1be2c89b69c2b068fc378daa952ba7f163c4a11628f55a4df523b3ef876040516134569190614598565b60405180910390a350505050505050565b60006202a300905090565b6000813b9050919050565b600061348883612b65565b90508115156000600283600001600b9054906101000a900460ff161660ff1614151515146134e157600281600001600b8282829054906101000a900460ff161892506101000a81548160ff021916908360ff1602179055505b8273ffffffffffffffffffffffffffffffffffffffff167fb5a1de456fff688115a4f75380060c23c8532d14ff85f687cc871456d642039383604051613527919061456e565b60405180910390a2505050565b60007f000000000000000000000000000000000000000000000000000000000000000073ffffffffffffffffffffffffffffffffffffffff163073ffffffffffffffffffffffffffffffffffffffff161480156135b057507f000000000000000000000000000000000000000000000000000000000000000046145b156135dd577f000000000000000000000000000000000000000000000000000000000000000090506135e8565b6135e5613e44565b90505b90565b60003860003847855af16136075763b12d13eb6000526004601cfd5b50565b613612613eda565b15613678577fffffffffffffffffffffffffffffffffffffffffffffffffffffffff748739278160601b60601c91508181547f8be0079c531659141344cd1fd0a4f28419497f9722a3daafe3b4186f6b6457e0600080a3811560ff1b82178155506136cf565b7fffffffffffffffffffffffffffffffffffffffffffffffffffffffff748739278160601b60601c91508181547f8be0079c531659141344cd1fd0a4f28419497f9722a3daafe3b4186f6b6457e0600080a3818155505b50565b6000831561371d578360051b8501855b60011561371a578035841160051b8481528135602082185260406000209450602082019150828210613714575061371a565b506136e2565b50505b8282149050949350505050565b600073ffffffffffffffffffffffffffffffffffffffff168273ffffffffffffffffffffffffffffffffffffffff1603613790576040517fea553b3400000000000000000000000000000000000000000000000000000000815260040160405180910390fd5b600061379a6110d5565b905060006137a784612b65565b905060008383600001600c9054906101000a90046bffffffffffffffffffffffff166bffffffffffffffffffffffff160190506b0de0b6b39983494c589bffff8411806137ff57506b0de0b6b39983494c589bffff81115b15613836576040517fe5cfe95700000000000000000000000000000000000000000000000000000000815260040160405180910390fd5b8083600001600c6101000a8154816bffffffffffffffffffffffff02191690836bffffffffffffffffffffffff1602179055506000848360000160149054906101000a90046bffffffffffffffffffffffff166bffffffffffffffffffffffff16019050808360000160146101000a8154816bffffffffffffffffffffffff02191690836bffffffffffffffffffffffff1602179055506000600284600001600b9054906101000a900460ff161660ff1603613b415760008460060160008873ffffffffffffffffffffffffffffffffffffffff1673ffffffffffffffffffffffffffffffffffffffff168152602001908152602001600020905060008460000160109054906101000a900463ffffffff1663ffffffff1690506000670de0b6b3a7640000848161396a57613969615210565b5b049050600061398161397c8385613d60565b613d71565b9050600081600001515114613b3c576000670de0b6b3a764000089600001600c9054906101000a90046bffffffffffffffffffffffff166bffffffffffffffffffffffff16816139d4576139d3615210565b5b04905060006139e3898d612c14565b905060008a60000160049054906101000a900463ffffffff1663ffffffff1690508360000151518b60000160088282829054906101000a900463ffffffff160192506101000a81548163ffffffff021916908363ffffffff160217905550848a60000160106101000a81548163ffffffff021916908363ffffffff1602179055505b5b6000613a7d8c600701613a7884612b29565b612b37565b63ffffffff1614613aa05782816001019150811115613a9b57600190505b613a66565b613aab878783612d10565b613ac08b600701828489806001019a50613d9e565b613acd848e836000613de4565b82816001019150811115613ae057600190505b848603613a6557808b60000160046101000a81548163ffffffff021916908363ffffffff160217905550613b38848c60010160009054906101000a900473ffffffffffffffffffffffffffffffffffffffff16613e06565b5050505b505050505b50508373ffffffffffffffffffffffffffffffffffffffff16600073ffffffffffffffffffffffffffffffffffffffff167fddf252ad1be2c89b69c2b068fc378daa952ba7f163c4a11628f55a4df523b3ef85604051613ba19190614598565b60405180910390a350505050565b6000600260008373ffffffffffffffffffffffffffffffffffffffff1673ffffffffffffffffffffffffffffffffffffffff168152602001908152602001600020549050919050565b6060613c2e60007f0000000000000000000000000000000000000000000000000000000000000000613edf90919063ffffffff16565b905090565b6060613c6960017f0000000000000000000000000000000000000000000000000000000000000000613edf90919063ffffffff16565b905090565b60606080604051019050602081016040526000815280600019835b600115613caa578184019350600a81066030018453600a8104905080613c89575b50828203602084039350808452505050919050565b6000600260008373ffffffffffffffffffffffffffffffffffffffff1673ffffffffffffffffffffffffffffffffffffffff1681526020019081526020016000206000815480929190600101919050559050919050565b6000613d29613d23613534565b83613f8f565b9050919050565b600080600080613d4288888888613fd0565b925092509250613d5282826140c4565b829350505050949350505050565b600081830382841102905092915050565b613d79614322565b6040805101828152806020018360051b81016040528183528083602001525050919050565b8163ffffffff168160201b17846020528360021c60005260406000206003851660061b815467ffffffffffffffff8482841c188116831b82188455505050505050505050565b8360200151818360081b8560601b171781526020810185602001525050505050565b81516040810363263c69d68152602080820152815160051b60440160208282601c85016000885af1600183511416613e3d57600082fd5b5050505050565b60007f8b73c3c69bb8fe3d512ecc4cf759cc79239f7b179b0ffacaa9a75d522b39400f7f00000000000000000000000000000000000000000000000000000000000000007f00000000000000000000000000000000000000000000000000000000000000004630604051602001613ebf95949392919061523f565b60405160208183030381529060405280519060200120905090565b600090565b606060ff60001b8314613efc57613ef583614228565b9050613f89565b818054613f0890614ca7565b80601f0160208091040260200160405190810160405280929190818152602001828054613f3490614ca7565b8015613f815780601f10613f5657610100808354040283529160200191613f81565b820191906000526020600020905b815481529060010190602001808311613f6457829003601f168201915b505050505090505b92915050565b60006040517f190100000000000000000000000000000000000000000000000000000000000081528360028201528260228201526042812091505092915050565b60008060007f7fffffffffffffffffffffffffffffff5d576e7357a4501ddfe92f46681b20a08460001c11156140105760006003859250925092506140ba565b6000600188888888604051600081526020016040526040516140359493929190615292565b6020604051602081039080840390855afa158015614057573d6000803e3d6000fd5b505050602060405103519050600073ffffffffffffffffffffffffffffffffffffffff168173ffffffffffffffffffffffffffffffffffffffff16036140ab57600060016000801b935093509350506140ba565b8060008060001b935093509350505b9450945094915050565b600060038111156140d8576140d76152d7565b5b8260038111156140eb576140ea6152d7565b5b03156142245760016003811115614105576141046152d7565b5b826003811115614118576141176152d7565b5b0361414f576040517ff645eedf00000000000000000000000000000000000000000000000000000000815260040160405180910390fd5b60026003811115614163576141626152d7565b5b826003811115614176576141756152d7565b5b036141bb578060001c6040517ffce698f70000000000000000000000000000000000000000000000000000000081526004016141b29190614598565b60405180910390fd5b6003808111156141ce576141cd6152d7565b5b8260038111156141e1576141e06152d7565b5b0361422357806040517fd78bce0c00000000000000000000000000000000000000000000000000000000815260040161421a91906146dc565b60405180910390fd5b5b5050565b606060006142358361429c565b90506000602067ffffffffffffffff81111561425457614253614ce3565b5b6040519080825280601f01601f1916602001820160405280156142865781602001600182028036833780820191505090505b5090508181528360208201528092505050919050565b60008060ff8360001c169050601f8111156142e3576040517fb3512b0c00000000000000000000000000000000000000000000000000000000815260040160405180910390fd5b80915050919050565b6040518060c001604052806000815260200160008152602001600081526020016000815260200160008152602001600081525090565b604051806040016040528060608152602001600081525090565b600081519050919050565b600082825260208201905092915050565b60005b8381101561437657808201518184015260208101905061435b565b60008484015250505050565b6000601f19601f8301169050919050565b600061439e8261433c565b6143a88185614347565b93506143b8818560208601614358565b6143c181614382565b840191505092915050565b600060208201905081810360008301526143e68184614393565b905092915050565b600080fd5b600080fd5b60006effffffffffffffffffffffffffffff82169050919050565b61441c816143f8565b811461442757600080fd5b50565b60008135905061443981614413565b92915050565b60008060408385031215614456576144556143ee565b5b60006144648582860161442a565b92505060206144758582860161442a565b9150509250929050565b600073ffffffffffffffffffffffffffffffffffffffff82169050919050565b60006144aa8261447f565b9050919050565b6144ba8161449f565b81146144c557600080fd5b50565b6000813590506144d7816144b1565b92915050565b6000819050919050565b6144f0816144dd565b81146144fb57600080fd5b50565b60008135905061450d816144e7565b92915050565b6000806040838503121561452a576145296143ee565b5b6000614538858286016144c8565b9250506020614549858286016144fe565b9150509250929050565b60008115159050919050565b61456881614553565b82525050565b6000602082019050614583600083018461455f565b92915050565b614592816144dd565b82525050565b60006020820190506145ad6000830184614589565b92915050565b6000806000606084860312156145cc576145cb6143ee565b5b60006145da868287016144c8565b93505060206145eb868287016144c8565b92505060406145fc868287016144fe565b9150509250925092565b60006020828403121561461c5761461b6143ee565b5b600061462a848285016144c8565b91505092915050565b61463c81614553565b811461464757600080fd5b50565b60008135905061465981614633565b92915050565b600060208284031215614675576146746143ee565b5b60006146838482850161464a565b91505092915050565b600060ff82169050919050565b6146a28161468c565b82525050565b60006020820190506146bd6000830184614699565b92915050565b6000819050919050565b6146d6816146c3565b82525050565b60006020820190506146f160008301846146cd565b92915050565b6147008161449f565b82525050565b600060208201905061471b60008301846146f7565b92915050565b600080fd5b600080fd5b600080fd5b60008083601f84011261474657614745614721565b5b8235905067ffffffffffffffff81111561476357614762614726565b5b60208301915083600182028301111561477f5761477e61472b565b5b9250929050565b6000806020838503121561479d5761479c6143ee565b5b600083013567ffffffffffffffff8111156147bb576147ba6143f3565b5b6147c785828601614730565b92509250509250929050565b60008083601f8401126147e9576147e8614721565b5b8235905067ffffffffffffffff81111561480657614805614726565b5b6020830191508360208202830111156148225761482161472b565b5b9250929050565b600080600060408486031215614842576148416143ee565b5b6000614850868287016144fe565b935050602084013567ffffffffffffffff811115614871576148706143f3565b5b61487d868287016147d3565b92509250509250925092565b60007fff0000000000000000000000000000000000000000000000000000000000000082169050919050565b6148be81614889565b82525050565b600081519050919050565b600082825260208201905092915050565b6000819050602082019050919050565b6148f9816144dd565b82525050565b600061490b83836148f0565b60208301905092915050565b6000602082019050919050565b600061492f826148c4565b61493981856148cf565b9350614944836148e0565b8060005b8381101561497557815161495c88826148ff565b975061496783614917565b925050600181019050614948565b5085935050505092915050565b600060e082019050614997600083018a6148b5565b81810360208301526149a98189614393565b905081810360408301526149bd8188614393565b90506149cc6060830187614589565b6149d960808301866146f7565b6149e660a08301856146cd565b81810360c08301526149f88184614924565b905098975050505050505050565b614a0f816143f8565b82525050565b6000602082019050614a2a6000830184614a06565b92915050565b600060208284031215614a4657614a456143ee565b5b6000614a54848285016144fe565b91505092915050565b600060208284031215614a7357614a726143ee565b5b6000614a818482850161442a565b91505092915050565b614a93816146c3565b8114614a9e57600080fd5b50565b600081359050614ab081614a8a565b92915050565b600060208284031215614acc57614acb6143ee565b5b6000614ada84828501614aa1565b91505092915050565b614aec8161468c565b8114614af757600080fd5b50565b600081359050614b0981614ae3565b92915050565b600080600080600080600060e0888a031215614b2e57614b2d6143ee565b5b6000614b3c8a828b016144c8565b9750506020614b4d8a828b016144c8565b9650506040614b5e8a828b016144fe565b9550506060614b6f8a828b016144fe565b9450506080614b808a828b01614afa565b93505060a0614b918a828b01614aa1565b92505060c0614ba28a828b01614aa1565b91505092959891949750929550565b60008060408385031215614bc857614bc76143ee565b5b6000614bd6858286016144c8565b9250506020614be7858286016144c8565b9150509250929050565b60006bffffffffffffffffffffffff82169050919050565b7f4e487b7100000000000000000000000000000000000000000000000000000000600052601160045260246000fd5b6000614c4382614bf1565b9150614c4e83614bf1565b925082820390506bffffffffffffffffffffffff811115614c7257614c71614c09565b5b92915050565b7f4e487b7100000000000000000000000000000000000000000000000000000000600052602260045260246000fd5b60006002820490506001821680614cbf57607f821691505b602082108103614cd257614cd1614c78565b5b50919050565b600082905092915050565b7f4e487b7100000000000000000000000000000000000000000000000000000000600052604160045260246000fd5b60008190508160005260206000209050919050565b60006020601f8301049050919050565b600082821b905092915050565b600060088302614d747fffffffffffffffffffffffffffffffffffffffffffffffffffffffffffffffff82614d37565b614d7e8683614d37565b95508019841693508086168417925050509392505050565b6000819050919050565b6000614dbb614db6614db1846144dd565b614d96565b6144dd565b9050919050565b6000819050919050565b614dd583614da0565b614de9614de182614dc2565b848454614d44565b825550505050565b600090565b614dfe614df1565b614e09818484614dcc565b505050565b5b81811015614e2d57614e22600082614df6565b600181019050614e0f565b5050565b601f821115614e7257614e4381614d12565b614e4c84614d27565b81016020851015614e5b578190505b614e6f614e6785614d27565b830182614e0e565b50505b505050565b600082821c905092915050565b6000614e9560001984600802614e77565b1980831691505092915050565b6000614eae8383614e84565b9150826002028217905092915050565b614ec88383614cd8565b67ffffffffffffffff811115614ee157614ee0614ce3565b5b614eeb8254614ca7565b614ef6828285614e31565b6000601f831160018114614f255760008415614f13578287013590505b614f1d8582614ea2565b865550614f85565b601f198416614f3386614d12565b60005b82811015614f5b57848901358255600182019150602085019450602081019050614f36565b86831015614f785784890135614f74601f891682614e84565b8355505b6001600288020188555050505b50505050505050565b6000614f99826144dd565b9150614fa4836144dd565b9250828202614fb2816144dd565b91508282048414831517614fc957614fc8614c09565b5b5092915050565b6000614fdb826144dd565b9150614fe6836144dd565b9250828201905080821115614ffe57614ffd614c09565b5b92915050565b60008160601b9050919050565b600061501c82615004565b9050919050565b600061502e82615011565b9050919050565b6150466150418261449f565b615023565b82525050565b60006150588284615035565b60148201915081905092915050565b600081905092915050565b6000815461507f81614ca7565b6150898186615067565b945060018216600081146150a457600181146150b9576150ec565b60ff19831686528115158202860193506150ec565b6150c285614d12565b60005b838110156150e4578154818901526001820191506020810190506150c5565b838801955050505b50505092915050565b60006151008261433c565b61510a8185615067565b935061511a818560208601614358565b80840191505092915050565b60006151328285615072565b915061513e82846150f5565b91508190509392505050565b600060c08201905061515f60008301896146cd565b61516c60208301886146f7565b61517960408301876146f7565b6151866060830186614589565b6151936080830185614589565b6151a060a0830184614589565b979650505050505050565b60006040820190506151c060008301856146f7565b6151cd60208301846146f7565b9392505050565b600063ffffffff82169050919050565b60006151ef826151d4565b915063ffffffff820361520557615204614c09565b5b600182019050919050565b7f4e487b7100000000000000000000000000000000000000000000000000000000600052601260045260246000fd5b600060a08201905061525460008301886146cd565b61526160208301876146cd565b61526e60408301866146cd565b61527b6060830185614589565b61528860808301846146f7565b9695505050505050565b60006080820190506152a760008301876146cd565b6152b46020830186614699565b6152c160408301856146cd565b6152ce60608301846146cd565b95945050505050565b7f4e487b7100000000000000000000000000000000000000000000000000000000600052602160045260246000fdfea264697066735822122085c98f35d100287a6a0d60e9132b3e915d6654dd6a3025f3c0bec03cb80dbb9b64736f6c6343000814003360806040523480156200001157600080fd5b50604051620014c8380380620014c883398181016040528101906200003791906200010b565b80620000486200009060201b60201c565b60010160006101000a81548173ffffffffffffffffffffffffffffffffffffffff021916908373ffffffffffffffffffffffffffffffffffffffff160217905550506200013d565b6000683602298b8c10b01230905090565b600080fd5b600073ffffffffffffffffffffffffffffffffffffffff82169050919050565b6000620000d382620000a6565b9050919050565b620000e581620000c6565b8114620000f157600080fd5b50565b6000815190506200010581620000da565b92915050565b600060208284031215620001245762000123620000a1565b5b60006200013484828501620000f4565b91505092915050565b61137b806200014d6000396000f3fe60806040526004361061010d5760003560e01c80636cef16e61161009557806397e5311c1161006457806397e5311c1461067c578063a22cb465146106a7578063b88d4fde146106d0578063c87b56dd146106f9578063e985e9c51461073657610114565b80636cef16e6146105d257806370a08231146105e95780638da5cb5b1461062657806395d89b411461065157610114565b806318160ddd116100dc57806318160ddd146104e857806323b872dd14610513578063243598791461053c57806342842e0e146105795780636352211e1461059557610114565b806301ffc9a71461041a57806306fdde0314610457578063081812fc14610482578063095ea7b3146104bf57610114565b3661011457005b600061011e610773565b9050600060e061012e6000610784565b901c905063263c69d6810361024a578160000160009054906101000a900473ffffffffffffffffffffffffffffffffffffffff1673ffffffffffffffffffffffffffffffffffffffff163373ffffffffffffffffffffffffffffffffffffffff16146101c6576040517f363cb31200000000000000000000000000000000000000000000000000000000815260040160405180910390fd5b602036103d60003e6004356024018036103d60003e602081033560051b81018036103d60003e5b80821461023f5781358060601c816001168260a01b60a81c811583028284027fddf252ad1be2c89b69c2b068fc378daa952ba7f163c4a11628f55a4df523b3ef600038a45050508160200191506101ed565b600160005260206000f35b630f4599e5810361041857600073ffffffffffffffffffffffffffffffffffffffff168260010160009054906101000a900473ffffffffffffffffffffffffffffffffffffffff1673ffffffffffffffffffffffffffffffffffffffff1614610340578160010160009054906101000a900473ffffffffffffffffffffffffffffffffffffffff1673ffffffffffffffffffffffffffffffffffffffff166102f26004610784565b73ffffffffffffffffffffffffffffffffffffffff161461033f576040517fc59ec47a00000000000000000000000000000000000000000000000000000000815260040160405180910390fd5b5b600073ffffffffffffffffffffffffffffffffffffffff168260000160009054906101000a900473ffffffffffffffffffffffffffffffffffffffff1673ffffffffffffffffffffffffffffffffffffffff16146103ca576040517fbf656a4600000000000000000000000000000000000000000000000000000000815260040160405180910390fd5b338260000160006101000a81548173ffffffffffffffffffffffffffffffffffffffff021916908373ffffffffffffffffffffffffffffffffffffffff160217905550600160005260206000f35b005b34801561042657600080fd5b50610441600480360381019061043c9190610ec2565b61078f565b60405161044e9190610f0a565b60405180910390f35b34801561046357600080fd5b5061046c6107b4565b6040516104799190610fb5565b60405180910390f35b34801561048e57600080fd5b506104a960048036038101906104a4919061100d565b6107ca565b6040516104b6919061107b565b60405180910390f35b3480156104cb57600080fd5b506104e660048036038101906104e191906110c2565b6107e3565b005b3480156104f457600080fd5b506104fd610869565b60405161050a9190611111565b60405180910390f35b34801561051f57600080fd5b5061053a6004803603810190610535919061112c565b610880565b005b34801561054857600080fd5b50610563600480360381019061055e919061100d565b61090f565b604051610570919061107b565b60405180910390f35b610593600480360381019061058e919061112c565b610928565b005b3480156105a157600080fd5b506105bc60048036038101906105b7919061100d565b610962565b6040516105c9919061107b565b60405180910390f35b3480156105de57600080fd5b506105e761097b565b005b3480156105f557600080fd5b50610610600480360381019061060b919061117f565b610aba565b60405161061d9190611111565b60405180910390f35b34801561063257600080fd5b5061063b610ae9565b604051610648919061107b565b60405180910390f35b34801561065d57600080fd5b50610666610b1c565b6040516106739190610fb5565b60405180910390f35b34801561068857600080fd5b50610691610b32565b60405161069e919061107b565b60405180910390f35b3480156106b357600080fd5b506106ce60048036038101906106c991906111d8565b610bcb565b005b3480156106dc57600080fd5b506106f760048036038101906106f2919061127d565b610c50565b005b34801561070557600080fd5b50610720600480360381019061071b919061100d565b610cc1565b60405161072d9190610fb5565b60405180910390f35b34801561074257600080fd5b5061075d60048036038101906107589190611305565b610cd8565b60405161076a9190610f0a565b60405180910390f35b6000683602298b8c10b01230905090565b600081359050919050565b60008160e01c635b5e139f81146380ac58cd82146301ffc9a783141717915050919050565b60606107c56306fdde036000610d20565b905090565b60006107dc63081812fc836000610d7d565b9050919050565b60006107ed610b32565b90508260601b60601c925060405163d10b6e0c600052836020528260405233606052602060006064601c34865af1601f3d111661082d573d6000823e3d81fd5b8060405260006060528284600c5160601c7f8c5be1e5ebec7d5bd14f71427d1e84f3dd0314c0f7b2291e5b200ac8c7c3b925600038a450505050565b600061087b63e2c79281600080610d7d565b905090565b600061088a610b32565b90508360601b60601c93508260601b60601c925060405163e5eb36c881528460208201528360408201528260608201523360808201526020816084601c840134865af16001825114166108e0573d6000823e3d81fd5b8284867fddf252ad1be2c89b69c2b068fc378daa952ba7f163c4a11628f55a4df523b3ef600038a45050505050565b60006109216324359879836000610d7d565b9050919050565b610933838383610880565b61093c82610dc8565b1561095d5761095c83838360405180602001604052806000815250610dd3565b5b505050565b6000610974636352211e836000610d7d565b9050919050565b600080610986610b32565b9050638da5cb5b600052602060006004601c845afa601f3d1116156109ae57600c5160601c91505b60006109b8610773565b905060008160020160009054906101000a900473ffffffffffffffffffffffffffffffffffffffff1690508373ffffffffffffffffffffffffffffffffffffffff168173ffffffffffffffffffffffffffffffffffffffff1614610ab457838260020160006101000a81548173ffffffffffffffffffffffffffffffffffffffff021916908373ffffffffffffffffffffffffffffffffffffffff1602179055508373ffffffffffffffffffffffffffffffffffffffff168173ffffffffffffffffffffffffffffffffffffffff167f8be0079c531659141344cd1fd0a4f28419497f9722a3daafe3b4186f6b6457e060405160405180910390a35b50505050565b6000610ae263f5b100ea8373ffffffffffffffffffffffffffffffffffffffff166000610d7d565b9050919050565b6000610af3610773565b60020160009054906101000a900473ffffffffffffffffffffffffffffffffffffffff16905090565b6060610b2d6395d89b416000610d20565b905090565b6000610b3c610773565b60000160009054906101000a900473ffffffffffffffffffffffffffffffffffffffff169050600073ffffffffffffffffffffffffffffffffffffffff168173ffffffffffffffffffffffffffffffffffffffff1603610bc8576040517f5b2a47ae00000000000000000000000000000000000000000000000000000000815260040160405180910390fd5b90565b6000610bd5610b32565b90508260601b60601c925060405163813500fc6000528360205282151560405233606052602060006064601c34865af160016000511416610c19573d6000823e3d81fd5b83337f17307eab39ab6107e8899845ad3d59bd9653f200f220920489ca2b5937696c3160206040a380604052600060605250505050565b610c5b858585610880565b610c6484610dc8565b15610cba57610cb985858585858080601f016020809104026020016040519081016040528093929190818152602001838380828437600081840152601f19601f82011690508083019250505050505050610dd3565b5b5050505050565b6060610cd163c87b56dd83610d20565b9050919050565b600080610d1663e985e9c58573ffffffffffffffffffffffffffffffffffffffff168573ffffffffffffffffffffffffffffffffffffffff16610d7d565b1415905092915050565b60606000610d2c610b32565b9050604051915083600052826020526000806024601c845afa610d52573d6000833e3d82fd5b60206000803e6020600051833e8151602060005101602084013e815160208301016040525092915050565b600080610d88610b32565b9050604051856000528460205283604052602060006044601c855afa601f3d1116610db6573d6000823e3d81fd5b80604052600051925050509392505050565b6000813b9050919050565b60405163150b7a028082523360208301528560601b60601c604083015283606083015260808083015282518060a08401528015610e1a578060c08401826020870160045afa505b60208360a48301601c860160008a5af1610e3e573d15610e3d573d6000843e3d83fd5b5b8160e01b835114610e575763d1a57ed66000526004601cfd5b50505050505050565b600080fd5b600080fd5b60007fffffffff0000000000000000000000000000000000000000000000000000000082169050919050565b610e9f81610e6a565b8114610eaa57600080fd5b50565b600081359050610ebc81610e96565b92915050565b600060208284031215610ed857610ed7610e60565b5b6000610ee684828501610ead565b91505092915050565b60008115159050919050565b610f0481610eef565b82525050565b6000602082019050610f1f6000830184610efb565b92915050565b600081519050919050565b600082825260208201905092915050565b60005b83811015610f5f578082015181840152602081019050610f44565b60008484015250505050565b6000601f19601f8301169050919050565b6000610f8782610f25565b610f918185610f30565b9350610fa1818560208601610f41565b610faa81610f6b565b840191505092915050565b60006020820190508181036000830152610fcf8184610f7c565b905092915050565b6000819050919050565b610fea81610fd7565b8114610ff557600080fd5b50565b60008135905061100781610fe1565b92915050565b60006020828403121561102357611022610e60565b5b600061103184828501610ff8565b91505092915050565b600073ffffffffffffffffffffffffffffffffffffffff82169050919050565b60006110658261103a565b9050919050565b6110758161105a565b82525050565b6000602082019050611090600083018461106c565b92915050565b61109f8161105a565b81146110aa57600080fd5b50565b6000813590506110bc81611096565b92915050565b600080604083850312156110d9576110d8610e60565b5b60006110e7858286016110ad565b92505060206110f885828601610ff8565b9150509250929050565b61110b81610fd7565b82525050565b60006020820190506111266000830184611102565b92915050565b60008060006060848603121561114557611144610e60565b5b6000611153868287016110ad565b9350506020611164868287016110ad565b925050604061117586828701610ff8565b9150509250925092565b60006020828403121561119557611194610e60565b5b60006111a3848285016110ad565b91505092915050565b6111b581610eef565b81146111c057600080fd5b50565b6000813590506111d2816111ac565b92915050565b600080604083850312156111ef576111ee610e60565b5b60006111fd858286016110ad565b925050602061120e858286016111c3565b9150509250929050565b600080fd5b600080fd5b600080fd5b60008083601f84011261123d5761123c611218565b5b8235905067ffffffffffffffff81111561125a5761125961121d565b5b60208301915083600182028301111561127657611275611222565b5b9250929050565b60008060008060006080868803121561129957611298610e60565b5b60006112a7888289016110ad565b95505060206112b8888289016110ad565b94505060406112c988828901610ff8565b935050606086013567ffffffffffffffff8111156112ea576112e9610e65565b5b6112f688828901611227565b92509250509295509295909350565b6000806040838503121561131c5761131b610e60565b5b600061132a858286016110ad565b925050602061133b858286016110ad565b915050925092905056fea26469706673582212202866c361874f8d4f7d11abb7958102afc5b3eba8f5bca415765537c358787d5264736f6c63430008140033",
  "linkReferences": {},
  "deployedLinkReferences": {}
}