{
  "_format": "hh-sol-artifact-1",
  "contractName": "TokenFactory",
  "sourceName": "contracts/TokenFactory.sol",
  "abi": [
    {
      "anonymous": false,
      "inputs": [
        {
          "indexed": true,
          "internalType": "address",
          "name": "user",
          "type": "address"
        },
        {
          "indexed": true,
          "internalType": "address",
          "name": "contractAddress",
          "type": "address"
        }
      ],
      "name": "TokenContractCreated",
      "type": "event"
    },
    {
      "inputs": [
        {
          "internalType": "uint256",
          "name": "",
          "type": "uint256"
        }
      ],
      "name": "contractAddresses",
      "outputs": [
        {
          "internalType": "address",
          "name": "",
          "type": "address"
        }
      ],
      "stateMutability": "view",
      "type": "function"
    },
    {
      "inputs": [
        {
          "internalType": "string",
          "name": "name",
          "type": "string"
        },
        {
          "internalType": "string",
          "name": "symbol",
          "type": "string"
        },
        {
          "internalType": "string",
          "name": "uri_",
          "type": "string"
        },
        {
          "internalType": "uint256",
          "name": "max_supply",
          "type": "uint256"
        },
        {
          "internalType": "uint256",
          "name": "publicPrice",
          "type": "uint256"
        },
        {
          "internalType": "uint256",
          "name": "initialTokenSupply",
          "type": "uint256"
        },
        {
          "internalType": "address",
          "name": "_owner",
          "type": "address"
        }
      ],
      "name": "createTokenContract",
      "outputs": [],
      "stateMutability": "nonpayable",
      "type": "function"
    },
    {
      "inputs": [],
      "name": "getAllContractAddresses",
      "outputs": [
        {
          "internalType": "address[]",
          "name": "",
          "type": "address[]"
        }
      ],
      "stateMutability": "view",
      "type": "function"
    },
    {
      "inputs": [
        {
          "internalType": "address",
          "name": "user",
          "type": "address"
        }
      ],
      "name": "getUserContracts",
      "outputs": [
        {
          "internalType": "address[]",
          "name": "",
          "type": "address[]"
        }
      ],
      "stateMutability": "view",
      "type": "function"
    },
    {
      "inputs": [],
      "name": "totalMinted",
      "outputs": [
        {
          "internalType": "uint256",
          "name": "",
          "type": "uint256"
        }
      ],
      "stateMutability": "view",
      "type": "function"
    },
    {
      "inputs": [
        {
          "internalType": "address",
          "name": "",
          "type": "address"
        },
        {
          "internalType": "uint256",
          "name": "",
          "type": "uint256"
        }
      ],
      "name": "userContracts",
      "outputs": [
        {
          "internalType": "address",
          "name": "",
          "type": "address"
        }
      ],
      "stateMutability": "view",
      "type": "function"
    }
  ],
  "bytecode": "0x608060405234801561001057600080fd5b50615105806100206000396000f3fe60806040523480156200001157600080fd5b50600436106200007b5760003560e01c80633b33b61a11620000565780633b33b61a14620000f3578063a2309ff814620000fd578063b789003d146200011657600080fd5b8063257d501714620000805780633263b545146200009957806334c925f014620000cd575b600080fd5b620000976200009136600462000501565b6200012d565b005b620000b0620000aa366004620005c3565b62000263565b6040516001600160a01b0390911681526020015b60405180910390f35b620000e4620000de366004620005dd565b6200028e565b604051620000c4919062000602565b620000e462000306565b6200010760015481565b604051908152602001620000c4565b620000b06200012736600462000651565b620003f2565b60008787878787878760405162000144906200042b565b620001569796959493929190620006c6565b604051809103906000f08015801562000173573d6000803e3d6000fd5b5060008054600180820183558280527f290decd9548b62a8d60345a988386fc84ba6bc95484008f6362f93160ef3e563909101805473ffffffffffffffffffffffffffffffffffffffff19166001600160a01b0385161790558054929350839291620001df8362000735565b90915550503360008181526002602090815260408083208054600181018255908452918320909101805473ffffffffffffffffffffffffffffffffffffffff19166001600160a01b03861690811790915590519092917fe6d7c8fbaff44d10196af2b4d12dc945efc3f934fb9f5c62f12b021d8006a71691a3505050505050505050565b600081815481106200027457600080fd5b6000918252602090912001546001600160a01b0316905081565b6001600160a01b038116600090815260026020908152604091829020805483518184028101840190945280845260609392830182828015620002fa57602002820191906000526020600020905b81546001600160a01b03168152600190910190602001808311620002db575b50505050509050919050565b6060600060015467ffffffffffffffff81111562000328576200032862000439565b60405190808252806020026020018201604052801562000352578160200160208202803683370190505b5090506000805b600054811015620003ea57600081815481106200037a576200037a6200075d565b9060005260206000200160009054906101000a90046001600160a01b0316838381518110620003ad57620003ad6200075d565b6001600160a01b039092166020928302919091019091015281620003d18162000735565b9250508080620003e19062000735565b91505062000359565b509092915050565b600260205281600052604060002081815481106200040f57600080fd5b6000918252602090912001546001600160a01b03169150829050565b61495c806200077483390190565b634e487b7160e01b600052604160045260246000fd5b600082601f8301126200046157600080fd5b813567ffffffffffffffff808211156200047f576200047f62000439565b604051601f8301601f19908116603f01168101908282118183101715620004aa57620004aa62000439565b81604052838152866020858801011115620004c457600080fd5b836020870160208301376000602085830101528094505050505092915050565b80356001600160a01b0381168114620004fc57600080fd5b919050565b600080600080600080600060e0888a0312156200051d57600080fd5b873567ffffffffffffffff808211156200053657600080fd5b620005448b838c016200044f565b985060208a01359150808211156200055b57600080fd5b620005698b838c016200044f565b975060408a01359150808211156200058057600080fd5b506200058f8a828b016200044f565b955050606088013593506080880135925060a08801359150620005b560c08901620004e4565b905092959891949750929550565b600060208284031215620005d657600080fd5b5035919050565b600060208284031215620005f057600080fd5b620005fb82620004e4565b9392505050565b6020808252825182820181905260009190848201906040850190845b81811015620006455783516001600160a01b0316835292840192918401916001016200061e565b50909695505050505050565b600080604083850312156200066557600080fd5b6200067083620004e4565b946020939093013593505050565b6000815180845260005b81811015620006a65760208185018101518683018201520162000688565b506000602082860101526020601f19601f83011685010191505092915050565b60e081526000620006db60e083018a6200067e565b8281036020840152620006ef818a6200067e565b905082810360408401526200070581896200067e565b9150508560608301528460808301528360a08301526001600160a01b03831660c083015298975050505050505050565b6000600182016200075657634e487b7160e01b600052601160045260246000fd5b5060010190565b634e487b7160e01b600052603260045260246000fdfe6101606040523480156200001257600080fd5b506040516200495c3803806200495c83398101604081905262000035916200066d565b604080518082018252600b81526a22a9219a181a2a37b5b2b760a91b602080830191909152825180840190935260018352603160f81b908301529081906200007f826000620001d5565b6101205262000090816001620001d5565b61014052815160208084019190912060e052815190820120610100524660a0526200011e60e05161010051604080517f8b73c3c69bb8fe3d512ecc4cf759cc79239f7b179b0ffacaa9a75d522b39400f60208201529081019290925260608201524660808201523060a082015260009060c00160405160208183030381529060405280519060200120905090565b60805250503060c0525062000133816200020e565b6003620001418882620007c9565b506004620001508782620007c9565b50600b84905560078390556005620001698682620007c9565b506009805460ff1916600117905560405160009033906200018a9062000592565b6001600160a01b039091168152602001604051809103906000f080158015620001b7573d6000803e3d6000fd5b509050620001c78383836200024b565b5050505050505050620008ef565b6000602083511015620001f557620001ed83620003f1565b905062000208565b81620002028482620007c9565b5060ff90505b92915050565b6001600160a01b0316638b78c6d8198190558060007f8be0079c531659141344cd1fd0a4f28419497f9722a3daafe3b4186f6b6457e08180a35b50565b68a20d6e21d0e52553088054640100000000900463ffffffff16156200028457604051633ab534b960e21b815260040160405180910390fd5b6001600160a01b038216620002ac576040516339a84a7b60e01b815260040160405180910390fd5b620002b7826200043d565b805463ffffffff60201b19166401000000001781556001810180546001600160a01b0384166001600160a01b03199091161790558315620003eb576001600160a01b0383166200031a57604051633a954ecd60e21b815260040160405180910390fd5b6b0de0b6b39983494c589bffff841115620003485760405163e5cfe95760e01b815260040160405180910390fd5b8054600160601b600160c01b0319166c010000000000000000000000006001600160601b038616021781556000620003808462000470565b80546001600160a01b03908116600160a01b6001600160601b038916021782556040518781529192508516906000907fddf252ad1be2c89b69c2b068fc378daa952ba7f163c4a11628f55a4df523b3ef9060200160405180910390a3620003e9846001620004ee565b505b50505050565b600080829050601f8151111562000428578260405163305a27a960e01b81526004016200041f919062000895565b60405180910390fd5b80516200043582620008ca565b179392505050565b630f4599e560005233602052602060006024601c6000855af160016000511416620002485763d125259c6000526004601cfd5b6001600160a01b038116600090815268a20d6e21d0e5255310602052604081208054909168a20d6e21d0e5255308916b01000000000000000000000090046001169003620004e8576001833b15620004c6576002175b825460ff9091166b0100000000000000000000000260ff60581b199091161782555b50919050565b6000620004fb8362000470565b80549091506b01000000000000000000000090046002161515821515146200054757805460ff6b01000000000000000000000080830482166002189091160260ff60581b199091161781555b826001600160a01b03167fb5a1de456fff688115a4f75380060c23c8532d14ff85f687cc871456d64203938360405162000585911515815260200190565b60405180910390a2505050565b610db48062003ba883390190565b634e487b7160e01b600052604160045260246000fd5b60005b83811015620005d3578181015183820152602001620005b9565b50506000910152565b600082601f830112620005ee57600080fd5b81516001600160401b03808211156200060b576200060b620005a0565b604051601f8301601f19908116603f01168101908282118183101715620006365762000636620005a0565b816040528381528660208588010111156200065057600080fd5b62000663846020830160208901620005b6565b9695505050505050565b600080600080600080600060e0888a0312156200068957600080fd5b87516001600160401b0380821115620006a157600080fd5b620006af8b838c01620005dc565b985060208a0151915080821115620006c657600080fd5b620006d48b838c01620005dc565b975060408a0151915080821115620006eb57600080fd5b50620006fa8a828b01620005dc565b60608a015160808b015160a08c015160c08d01519399509197509550935090506001600160a01b03811681146200073057600080fd5b8091505092959891949750929550565b600181811c908216806200075557607f821691505b602082108103620004e857634e487b7160e01b600052602260045260246000fd5b601f821115620007c457600081815260208120601f850160051c810160208610156200079f5750805b601f850160051c820191505b81811015620007c057828155600101620007ab565b5050505b505050565b81516001600160401b03811115620007e557620007e5620005a0565b620007fd81620007f6845462000740565b8462000776565b602080601f8311600181146200083557600084156200081c5750858301515b600019600386901b1c1916600185901b178555620007c0565b600085815260208120601f198616915b82811015620008665788860151825594840194600190910190840162000845565b5085821015620008855787850151600019600388901b60f8161c191681555b5050505050600190811b01905550565b6020815260008251806020840152620008b6816040850160208701620005b6565b601f01601f19169190910160400192915050565b80516020808301519190811015620004e85760001960209190910360031b1b16919050565b60805160a05160c05160e05161010051610120516101405161325e6200094a60003960006127d3015260006127a60152600061230e015260006122e6015260006122410152600061226b01526000612295015261325e6000f3fe6080604052600436106102ca5760003560e01c80637bc9200e11610179578063c87b56dd116100d6578063dd62ed3e1161008a578063f2fde38b11610064578063f2fde38b14610b5b578063f48a2e0314610b6e578063fee81cf414610b8e576102d1565b8063dd62ed3e14610ae5578063ec0d755714610b33578063f04e283e14610b48576102d1565b8063d505accf116100bb578063d505accf14610a8f578063d52079b414610aaf578063d95cd6ea14610ac5576102d1565b8063c87b56dd14610a4f578063cf1c73b214610a6f576102d1565b8063957aa58c1161012d578063a0712d6811610112578063a0712d6814610a06578063a9059cbb14610a19578063a945bf8014610a39576102d1565b8063957aa58c146109d757806395d89b41146109f1576102d1565b806384b0196e1161015e57806384b0196e146109805780638da5cb5b146109a857806390967a52146109c1576102d1565b80637bc9200e1461094d5780637ecebe0014610960576102d1565b8063313ce5671161022757806354d1f13d116101db57806370a08231116101c057806370a08231146108dd578063715018a6146109305780637754305c14610938576102d1565b806354d1f13d146108b557806355f804b3146108bd576102d1565b80633644e5151161020c5780633644e515146108515780633ccfd60b146108665780634ef41efc1461087b576102d1565b8063313ce5671461081f57806332cb6b0c1461083b576102d1565b806318160ddd1161027e578063256929621161026357806325692962146107d7578063274e430b146107df5780632a6a935d146107ff576102d1565b806318160ddd1461078557806323b872dd146107b7576102d1565b8063095ea7b3116102af578063095ea7b3146106f15780630bb237841461072157806317b9c06a1461075a576102d1565b806305fefda7146106a657806306fdde03146106c6576102d1565b366102d157005b68a20d6e21d0e525530860003560e01c63e985e9c58190036103775760018201546001600160a01b0316331461031a5760405163ce5a776b60e01b815260040160405180910390fd5b604436101561032857600080fd5b6004356001600160a01b038181166000908152600385016020908152604080832060243594851684529091529020546103749060ff1661036957600061036c565b60015b60ff16610bc1565b50505b80636352211e036103dc5760018201546001600160a01b031633146103af5760405163ce5a776b60e01b815260040160405180910390fd5b60243610156103bd57600080fd5b6004356103da6103cc82610bcb565b6001600160a01b0316610bc1565b505b8063e5eb36c8036104495760018201546001600160a01b031633146104145760405163ce5a776b60e01b815260040160405180910390fd5b608436101561042257600080fd5b60043560243560443560643561043a84848484610c02565b6104446001610bc1565b505050505b8063813500fc036104e35760018201546001600160a01b031633146104815760405163ce5a776b60e01b815260040160405180910390fd5b606436101561048f57600080fd5b6001600160a01b03604435818116600090815268a20d6e21d0e525530b6020908152604080832060043595861684529091529020805460ff19166024351515908117909155906104df6001610bc1565b5050505b8063d10b6e0c036105445760018201546001600160a01b0316331461051b5760405163ce5a776b60e01b815260040160405180910390fd5b606436101561052957600080fd5b6004356024356044356105406103cc848484611086565b5050505b8063081812fc0361059b5760018201546001600160a01b0316331461057c5760405163ce5a776b60e01b815260040160405180910390fd5b602436101561058a57600080fd5b6004356105996103cc82611185565b505b8063f5b100ea036106235760018201546001600160a01b031633146105d35760405163ce5a776b60e01b815260040160405180910390fd5b60243610156105e157600080fd5b60043561062161061c826001600160a01b0316600090815268a20d6e21d0e5255310602052604090205463ffffffff600160801b9091041690565b610bc1565b505b8063e2c792810361068f5760018201546001600160a01b0316331461065b5760405163ce5a776b60e01b815260040160405180910390fd5b600436101561066957600080fd5b68a20d6e21d0e52553085461068f9068010000000000000000900463ffffffff16610bc1565b8063b7a94eb8036106a4576106a46001610bc1565b005b3480156106b257600080fd5b506106a46106c1366004612bf4565b6111d1565b3480156106d257600080fd5b506106db6111e4565b6040516106e89190612c66565b60405180910390f35b3480156106fd57600080fd5b5061071161070c366004612c90565b611276565b60405190151581526020016106e8565b34801561072d57600080fd5b5068a20d6e21d0e52553085468010000000000000000900463ffffffff165b6040519081526020016106e8565b34801561076657600080fd5b5068a20d6e21d0e525530854640100000000900463ffffffff1661074c565b34801561079157600080fd5b5068a20d6e21d0e525530854600160601b90046bffffffffffffffffffffffff1661074c565b3480156107c357600080fd5b506107116107d2366004612cba565b6112f1565b6106a46113ad565b3480156107eb57600080fd5b506107116107fa366004612cf6565b6113fd565b34801561080b57600080fd5b506106a461081a366004612d11565b61144c565b34801561082b57600080fd5b50604051601281526020016106e8565b34801561084757600080fd5b5061074c600b5481565b34801561085d57600080fd5b5061074c611459565b34801561087257600080fd5b506106a4611463565b34801561088757600080fd5b5068a20d6e21d0e5255309546001600160a01b03165b6040516001600160a01b0390911681526020016106e8565b6106a4611476565b3480156108c957600080fd5b506106a46108d8366004612d33565b6114b2565b3480156108e957600080fd5b5061074c6108f8366004612cf6565b6001600160a01b0316600090815268a20d6e21d0e52553106020526040902054600160a01b90046bffffffffffffffffffffffff1690565b6106a46114cc565b34801561094457600080fd5b506106db6114de565b6106a461095b366004612da5565b6114ed565b34801561096c57600080fd5b5061074c61097b366004612cf6565b611602565b34801561098c57600080fd5b50610995611620565b6040516106e89796959493929190612e24565b3480156109b457600080fd5b50638b78c6d8195461089d565b3480156109cd57600080fd5b5061074c60085481565b3480156109e357600080fd5b506009546107119060ff1681565b3480156109fd57600080fd5b506106db611682565b6106a4610a14366004612ed6565b611691565b348015610a2557600080fd5b50610711610a34366004612c90565b611724565b348015610a4557600080fd5b5061074c60075481565b348015610a5b57600080fd5b506106db610a6a366004612ed6565b61173a565b348015610a7b57600080fd5b506106a4610a8a366004612ed6565b611783565b348015610a9b57600080fd5b506106a4610aaa366004612eef565b611790565b348015610abb57600080fd5b5061074c600a5481565b348015610ad157600080fd5b5061074c610ae0366004612cf6565b611968565b348015610af157600080fd5b5061074c610b00366004612f62565b6001600160a01b03918216600090815268a20d6e21d0e525530d6020908152604080832093909416825291909152205490565b348015610b3f57600080fd5b506106a461199b565b6106a4610b56366004612cf6565b6119c9565b6106a4610b69366004612cf6565b611a06565b348015610b7a57600080fd5b506106a4610b89366004612ed6565b611a2d565b348015610b9a57600080fd5b5061074c610ba9366004612cf6565b63389a75e1600c908152600091909152602090205490565b8060005260206000f35b6000610bd682611a3a565b610bf35760405163677510db60e11b815260040160405180910390fd5b610bfc82611a57565b92915050565b68a20d6e21d0e52553086001600160a01b038416610c3357604051633a954ecd60e21b815260040160405180910390fd5b6000816002016000610c6f84600701610c4c8860011b90565b600381901c600090815260209290925260409091205460059190911b60e0161c90565b63ffffffff1681526020810191909152604001600020546001600160a01b03908116915086168114610ccd576040517fa114810000000000000000000000000000000000000000000000000000000000815260040160405180910390fd5b856001600160a01b0316836001600160a01b031614610d6a576001600160a01b03808716600090815260038401602090815260408083209387168352929052205460ff16610d6a5760008481526004830160205260409020546001600160a01b03848116911614610d6a576040517f59c896be00000000000000000000000000000000000000000000000000000000815260040160405180910390fd5b6000610d7587611aac565b90506000610d8287611aac565b8254909150670de0b6b3a7640000908390601490610db6908490600160a01b90046bffffffffffffffffffffffff16612fab565b82546101009290920a6bffffffffffffffffffffffff81810219909316918316021790915582546001600160a01b038116670de0b6b3a7640000600160a01b928390048416019092160217825550610e4e60078501600188901b610e1a848b611b20565b826020528160031c60005260406000206007831660051b815463ffffffff8482841c188116831b8218845550505050505050565b60008681526004850160209081526040808320805473ffffffffffffffffffffffffffffffffffffffff191690556001600160a01b038b168352600687018252808320855463ffffffff60801b198116600160801b9182900463ffffffff90811660001901908116909202178755631fffffff600382901c168552925282205460059190911b60e0161c6001600160a01b038a166000908152600687016020526040902063ffffffff919091169150610f4e90610f136007880160018b811b01610c4c565b63ffffffff1683826020528160031c60005260406000206007831660051b815463ffffffff8482841c188116831b8218845550505050505050565b8154600163ffffffff600160801b80840482169283019091160263ffffffff60801b19909216919091178355610fa060078701610f8e84600190811b0190565b610e1a60078a0160018d811b01610c4c565b6001600160a01b03891660009081526006870160209081526040808320909152600383901c82529020805460e0600584901b1681811c8b1863ffffffff16901b1890556110256007870160018a811b0183826020528160031c60005260406000206007831660051b815463ffffffff8482841c188116831b8218845550505050505050565b5050866001600160a01b0316886001600160a01b03167fddf252ad1be2c89b69c2b068fc378daa952ba7f163c4a11628f55a4df523b3ef670de0b6b3a764000060405161107491815260200190565b60405180910390a35050505050505050565b600068a20d6e21d0e52553088168a20d6e21d0e525530a816110b568a20d6e21d0e525530f600189901b610c4c565b63ffffffff1681526020810191909152604001600020546001600160a01b03908116915084168114611142576001600160a01b03808216600090815260038401602090815260408083209388168352929052205460ff16611142576040517fcfb3b94200000000000000000000000000000000000000000000000000000000815260040160405180910390fd5b60008581526004909201602052604090912080546001600160a01b03871673ffffffffffffffffffffffffffffffffffffffff1990911617905590509392505050565b600061119082611a3a565b6111ad5760405163677510db60e11b815260040160405180910390fd5b50600090815268a20d6e21d0e525530c60205260409020546001600160a01b031690565b6111d9611be8565b600791909155600855565b6060600380546111f390612fd0565b80601f016020809104026020016040519081016040528092919081815260200182805461121f90612fd0565b801561126c5780601f106112415761010080835404028352916020019161126c565b820191906000526020600020905b81548152906001019060200180831161124f57829003601f168201915b5050505050905090565b60008068a20d6e21d0e525530833600081815260058301602090815260408083206001600160a01b038a16808552908352928190208890555187815293945090927f8c5be1e5ebec7d5bd14f71427d1e84f3dd0314c0f7b2291e5b200ac8c7c3b925910160405180910390a35060019392505050565b905090565b6001600160a01b038316600090815268a20d6e21d0e525530d6020908152604080832033845290915281205468a20d6e21d0e5255308906000198114611396578084111561136b576040517f13be252b00000000000000000000000000000000000000000000000000000000815260040160405180910390fd5b6001600160a01b03861660009081526005830160209081526040808320338452909152902084820390555b6113a1868686611c03565b50600195945050505050565b60006202a30067ffffffffffffffff164201905063389a75e1600c5233600052806020600c2055337fdbf36a107da19e49527a7176a1babf963b4b0ff8cde35ee35d6cd8f1f9ac7e1d600080a250565b6001600160a01b038116600090815268a20d6e21d0e5255310602052604081208054600160581b9004600116820361143957823b5b9392505050565b54600160581b9004600216151592915050565b611456338261219c565b50565b60006112ec612234565b61146b611be8565b6114743361235f565b565b63389a75e1600c523360005260006020600c2055337ffa7b8eab7da67f412cc9575ed43464468f9bfbae89d1675917346ca6d8fe3c92600080a2565b6114ba611be8565b60056114c7828483613068565b505050565b6114d4611be8565b611474600061237b565b6060600580546111f390612fd0565b600854600954849060ff166115155760405163baf13b3f60e01b815260040160405180910390fd5b346115208284613128565b1461153d5760405162bfc92160e01b815260040160405180910390fd5b600b5481600a5461154e919061313f565b111561156d57604051637be9badb60e01b815260040160405180910390fd5b6006546040516bffffffffffffffffffffffff193360601b1660208201526115b2918691869190603401604051602081830303815290604052805190602001206123b9565b6115e8576040517f09bde33900000000000000000000000000000000000000000000000000000000815260040160405180910390fd5b600a805460010190556115fb33866123f3565b5050505050565b6001600160a01b038116600090815260026020526040812054610bfc565b60006060806000806000606061163461279f565b61163c6127cc565b604080516000808252602082019092527f0f000000000000000000000000000000000000000000000000000000000000009b939a50919850469750309650945092509050565b6060600480546111f390612fd0565b600754600954829060ff166116b95760405163baf13b3f60e01b815260040160405180910390fd5b346116c48284613128565b146116e15760405162bfc92160e01b815260040160405180910390fd5b600b5481600a546116f2919061313f565b111561171157604051637be9badb60e01b815260040160405180910390fd5b600a805460010190556114c733846123f3565b6000611731338484611c03565b50600192915050565b60606005805461174990612fd0565b15905061177e57600561175b836127f9565b60405160200161176c929190613152565b60405160208183030381529060405290505b919050565b61178b611be8565b600655565b834211156117d2576040517f62791302000000000000000000000000000000000000000000000000000000008152600481018590526024015b60405180910390fd5b60007f6e71edae12b1b97f4d1f60370fef10105fa2faae0126114a169c64845d6126c988888861181f8c6001600160a01b0316600090815260026020526040902080546001810190915590565b6040805160208101969096526001600160a01b0394851690860152929091166060840152608083015260a082015260c0810186905260e001604051602081830303815290604052805190602001209050600061187a8261283d565b9050600061188a82878787612885565b9050896001600160a01b0316816001600160a01b0316146118ea576040517f4b800e460000000000000000000000000000000000000000000000000000000081526001600160a01b0380831660048301528b1660248201526044016117c9565b6001600160a01b03808b16600081815268a20d6e21d0e525530d60209081526040808320948e16808452948252918290208c905590518b815268a20d6e21d0e52553089392917f8c5be1e5ebec7d5bd14f71427d1e84f3dd0314c0f7b2291e5b200ac8c7c3b925910160405180910390a35050505050505050505050565b6001600160a01b038116600090815268a20d6e21d0e52553106020526040812054600160801b900463ffffffff16610bfc565b6119a3611be8565b60095460ff16156119ba576009805460ff19169055565b6009805460ff19166001179055565b6119d1611be8565b63389a75e1600c52806000526020600c2080544211156119f957636f5e88186000526004601cfd5b600090556114568161237b565b611a0e611be8565b8060601b611a2457637448fbae6000526004601cfd5b6114568161237b565b611a35611be8565b600855565b600080611a4683611a57565b6001600160a01b0316141592915050565b600068a20d6e21d0e525530868a20d6e21d0e525530a82611a8568a20d6e21d0e525530f600187901b610c4c565b63ffffffff1681526020810191909152604001600020546001600160a01b03169392505050565b6001600160a01b038116600090815268a20d6e21d0e5255310602052604081208054909168a20d6e21d0e525530891600160581b90046001169003611b1a576001833b15611af8576002175b825460ff909116600160581b026bff0000000000000000000000199091161782555b50919050565b8154600160601b900463ffffffff1668a20d6e21d0e52553086000829003611be15780548190600090611b589063ffffffff166131d9565b825463ffffffff8083166101009490940a848102910219909116179092558554600160601b82027fffffffffffffffffffffffffffffffff00000000ffffffffffffffffffffffff9091161786556000908152600283016020526040902080546001600160a01b03861673ffffffffffffffffffffffffffffffffffffffff1990911617905591505b5092915050565b638b78c6d819543314611474576382b429006000526004601cfd5b6001600160a01b038216611c2a57604051633a954ecd60e21b815260040160405180910390fd5b68a20d6e21d0e52553086000611c3f85611aac565b90506000611c4c85611aac565b9050611c876040518060c001604052806000815260200160008152602001600081526020016000815260200160008152602001600081525090565b825463ffffffff600160801b808304821660808501528454041660a08301526bffffffffffffffffffffffff600160a01b9091041660408201819052851115611cfc576040517ff4d678b800000000000000000000000000000000000000000000000000000000815260040160405180910390fd5b6040810180518690039081905283546bffffffffffffffffffffffff808316600160a01b9081026001600160a01b03938416178755855481810483168a01606087018190529092160291161783556080820151611d6791670de0b6b3a7640000900480821191030290565b81528154600160581b9004600216600003611dd657856001600160a01b0316876001600160a01b031603611da357805160808201510360a08201525b611dd0670de0b6b3a7640000826060015181611dc157611dc16131fc565b048260a0015180821191030290565b60208201525b6000611e2082602001518360000151016040805180820190915260608152600060208201526040805101828152806020018360051b81016040528183528083602001525050919050565b825190915015611f59576001600160a01b0388166000908152600686016020526040902060808301518351875463ffffffff6801000000000000000080830482168490038216026bffffffff0000000000000000199092169190911789558754918303908116600160801b0263ffffffff60801b199092169190911787555b60001991909101600381901c600090815260208490526040812054919291600584901b60e0161c60078a01602052633fffffff600282901c16600090815260409020805460c0600684901b1681811c67ffffffffffffffff16901b18905563ffffffff169050600081815260048a0160209081526040909120805473ffffffffffffffffffffffffffffffffffffffff19169055858101805160608f901b600885901b176001178152909101905250808203611e9f575050505b602082015115612124576001600160a01b03871660009081526006860160209081526040822060a085015191850151909290820190611f98878c611b20565b895460208801516bffffffff000000000000000019821663ffffffff6801000000000000000080850482169093018116909202178c55895463ffffffff60801b1916600160801b86831602178a55919250670de0b6b3a7640000600160601b82046bffffffffffffffffffffffff160491640100000000909104165b6120258b600701610c4c8360011b90565b63ffffffff1615612044576001018181111561203f575060015b612014565b6020869052600385901c600090815260409020805460e0600588901b1681811c841863ffffffff16901b18905560078b016020908152600282901c600090815260409020805460c0600685901b1681811c9389901b63ffffffff8816179390931867ffffffffffffffff1690921b90911890556001909401936120e7878e8360008360200151818360081b8560601b171781526020810185602001525050505050565b600101818111156120f6575060015b838503612014578a5463ffffffff9091166401000000000267ffffffff0000000019909116178a5550505050505b805151156121455760018501546121459082906001600160a01b03166128b3565b50856001600160a01b0316876001600160a01b03167fddf252ad1be2c89b69c2b068fc378daa952ba7f163c4a11628f55a4df523b3ef8760405161218b91815260200190565b60405180910390a350505050505050565b60006121a783611aac565b8054909150600160581b90046002161515821515146121ea57805460ff600160581b8083048216600218909116026bff0000000000000000000000199091161781555b826001600160a01b03167fb5a1de456fff688115a4f75380060c23c8532d14ff85f687cc871456d642039383604051612227911515815260200190565b60405180910390a2505050565b6000306001600160a01b037f00000000000000000000000000000000000000000000000000000000000000001614801561228d57507f000000000000000000000000000000000000000000000000000000000000000046145b156122b757507f000000000000000000000000000000000000000000000000000000000000000090565b6112ec604080517f8b73c3c69bb8fe3d512ecc4cf759cc79239f7b179b0ffacaa9a75d522b39400f60208201527f0000000000000000000000000000000000000000000000000000000000000000918101919091527f000000000000000000000000000000000000000000000000000000000000000060608201524660808201523060a082015260009060c00160405160208183030381529060405280519060200120905090565b60003860003847855af16114565763b12d13eb6000526004601cfd5b638b78c6d81980546001600160a01b039092169182907f8be0079c531659141344cd1fd0a4f28419497f9722a3daafe3b4186f6b6457e0600080a355565b600083156123eb578360051b8501855b803580851160051b948552602094851852604060002093018181106123c95750505b501492915050565b6001600160a01b03821661241a57604051633a954ecd60e21b815260040160405180910390fd5b68a20d6e21d0e5255308600061242f84611aac565b8254909150600160601b90046bffffffffffffffffffffffff1683016b0de0b6b39983494c589bffff84118061247057506b0de0b6b39983494c589bffff81115b156124a7576040517fe5cfe95700000000000000000000000000000000000000000000000000000000815260040160405180910390fd5b82546bffffffffffffffffffffffff808316600160601b027fffffffffffffffff000000000000000000000000ffffffffffffffffffffffff9092169190911784558254600160a01b80820483168701928316026001600160a01b0390911617808455600160581b9004600216600003612756576001600160a01b0386166000908152600685016020526040812084549091600160801b90910463ffffffff1690670de0b6b3a764000084049050600061259b838303848411026040805180820190915260608152600060208201526040805101828152806020018360051b81016040528183528083602001525050919050565b80515190915015612751578754670de0b6b3a7640000600160601b9091046bffffffffffffffffffffffff160460006125d4898d611b20565b8a548451516bffffffff000000000000000019821663ffffffff6801000000000000000080850482169093018116909202178d558b5463ffffffff60801b1916600160801b88831602178c559192506401000000009004165b61263e8b600701610c4c8360011b90565b63ffffffff161561265d5760010182811115612658575060015b61262d565b6020879052600386901c600090815260409020805460e0600589901b1681811c841863ffffffff16901b18905560078b016020908152600282901c600090815260409020805460c0600685901b1681811c938a901b63ffffffff8716179390931867ffffffffffffffff1690921b9091189055600190950194612700848e8360008360200151818360081b8560601b171781526020810185602001525050505050565b6001018281111561270f575060015b84860361262d578a5467ffffffff00000000191664010000000063ffffffff831602178b5560018b015461274d9085906001600160a01b03166128b3565b5050505b505050505b50506040518381526001600160a01b038516906000907fddf252ad1be2c89b69c2b068fc378daa952ba7f163c4a11628f55a4df523b3ef9060200160405180910390a350505050565b60606112ec7f000000000000000000000000000000000000000000000000000000000000000060006128f2565b60606112ec7f000000000000000000000000000000000000000000000000000000000000000060016128f2565b60606080604051019050602081016040526000815280600019835b928101926030600a8206018453600a900480612814575050819003601f19909101908152919050565b6000610bfc61284a612234565b836040517f19010000000000000000000000000000000000000000000000000000000000008152600281019290925260228201526042902090565b6000806000806128978888888861299d565b9250925092506128a78282612a6c565b50909695505050505050565b81516040810363263c69d68152602080820152815160051b604401915060208183601c84016000875af16001825114166128ec57600081fd5b50505050565b606060ff831461290c5761290583612b74565b9050610bfc565b81805461291890612fd0565b80601f016020809104026020016040519081016040528092919081815260200182805461294490612fd0565b80156129915780601f1061296657610100808354040283529160200191612991565b820191906000526020600020905b81548152906001019060200180831161297457829003601f168201915b50505050509050610bfc565b600080807f7fffffffffffffffffffffffffffffff5d576e7357a4501ddfe92f46681b20a08411156129d85750600091506003905082612a62565b604080516000808252602082018084528a905260ff891692820192909252606081018790526080810186905260019060a0016020604051602081039080840390855afa158015612a2c573d6000803e3d6000fd5b5050604051601f1901519150506001600160a01b038116612a5857506000925060019150829050612a62565b9250600091508190505b9450945094915050565b6000826003811115612a8057612a80613212565b03612a89575050565b6001826003811115612a9d57612a9d613212565b03612ad4576040517ff645eedf00000000000000000000000000000000000000000000000000000000815260040160405180910390fd5b6002826003811115612ae857612ae8613212565b03612b22576040517ffce698f7000000000000000000000000000000000000000000000000000000008152600481018290526024016117c9565b6003826003811115612b3657612b36613212565b03612b70576040517fd78bce0c000000000000000000000000000000000000000000000000000000008152600481018290526024016117c9565b5050565b60606000612b8183612bb3565b604080516020808252818301909252919250600091906020820181803683375050509182525060208101929092525090565b600060ff8216601f811115610bfc576040517fb3512b0c00000000000000000000000000000000000000000000000000000000815260040160405180910390fd5b60008060408385031215612c0757600080fd5b50508035926020909101359150565b60005b83811015612c31578181015183820152602001612c19565b50506000910152565b60008151808452612c52816020860160208601612c16565b601f01601f19169290920160200192915050565b6020815260006114326020830184612c3a565b80356001600160a01b038116811461177e57600080fd5b60008060408385031215612ca357600080fd5b612cac83612c79565b946020939093013593505050565b600080600060608486031215612ccf57600080fd5b612cd884612c79565b9250612ce660208501612c79565b9150604084013590509250925092565b600060208284031215612d0857600080fd5b61143282612c79565b600060208284031215612d2357600080fd5b8135801515811461143257600080fd5b60008060208385031215612d4657600080fd5b823567ffffffffffffffff80821115612d5e57600080fd5b818501915085601f830112612d7257600080fd5b813581811115612d8157600080fd5b866020828501011115612d9357600080fd5b60209290920196919550909350505050565b600080600060408486031215612dba57600080fd5b83359250602084013567ffffffffffffffff80821115612dd957600080fd5b818601915086601f830112612ded57600080fd5b813581811115612dfc57600080fd5b8760208260051b8501011115612e1157600080fd5b6020830194508093505050509250925092565b7fff00000000000000000000000000000000000000000000000000000000000000881681526000602060e081840152612e6060e084018a612c3a565b8381036040850152612e72818a612c3a565b606085018990526001600160a01b038816608086015260a0850187905284810360c0860152855180825283870192509083019060005b81811015612ec457835183529284019291840191600101612ea8565b50909c9b505050505050505050505050565b600060208284031215612ee857600080fd5b5035919050565b600080600080600080600060e0888a031215612f0a57600080fd5b612f1388612c79565b9650612f2160208901612c79565b95506040880135945060608801359350608088013560ff81168114612f4557600080fd5b9699959850939692959460a0840135945060c09093013592915050565b60008060408385031215612f7557600080fd5b612f7e83612c79565b9150612f8c60208401612c79565b90509250929050565b634e487b7160e01b600052601160045260246000fd5b6bffffffffffffffffffffffff828116828216039080821115611be157611be1612f95565b600181811c90821680612fe457607f821691505b602082108103611b1a57634e487b7160e01b600052602260045260246000fd5b634e487b7160e01b600052604160045260246000fd5b601f8211156114c757600081815260208120601f850160051c810160208610156130415750805b601f850160051c820191505b818110156130605782815560010161304d565b505050505050565b67ffffffffffffffff83111561308057613080613004565b6130948361308e8354612fd0565b8361301a565b6000601f8411600181146130c857600085156130b05750838201355b600019600387901b1c1916600186901b1783556115fb565b600083815260209020601f19861690835b828110156130f957868501358255602094850194600190920191016130d9565b50868210156131165760001960f88860031b161c19848701351681555b505060018560011b0183555050505050565b8082028115828204841417610bfc57610bfc612f95565b80820180821115610bfc57610bfc612f95565b600080845461316081612fd0565b60018281168015613178576001811461318d576131bc565b60ff19841687528215158302870194506131bc565b8860005260208060002060005b858110156131b35781548a82015290840190820161319a565b50505082870194505b5050505083516131d0818360208801612c16565b01949350505050565b600063ffffffff8083168181036131f2576131f2612f95565b6001019392505050565b634e487b7160e01b600052601260045260246000fd5b634e487b7160e01b600052602160045260246000fdfea26469706673582212206eed142957dc8df5a72eef29ea8b4b55bd719ad6218278e1de7e0872c2e142aa64736f6c63430008140033608060405234801561001057600080fd5b50604051610db4380380610db483398101604081905261002f9161005c565b683602298b8c10b0123180546001600160a01b0319166001600160a01b039290921691909117905561008c565b60006020828403121561006e57600080fd5b81516001600160a01b038116811461008557600080fd5b9392505050565b610d198061009b6000396000f3fe60806040526004361061012d5760003560e01c80636cef16e6116100a557806397e5311c11610074578063b88d4fde11610059578063b88d4fde146104fc578063c87b56dd1461051c578063e985e9c51461053c57610134565b806397e5311c146104c7578063a22cb465146104dc57610134565b80636cef16e61461045757806370a082311461046c5780638da5cb5b1461048c57806395d89b41146104b257610134565b806318160ddd116100fc57806324359879116100e1578063243598791461040457806342842e0e146104245780636352211e1461043757610134565b806318160ddd146103c157806323b872dd146103e457610134565b806301ffc9a7146102f557806306fdde0314610347578063081812fc14610369578063095ea7b3146103a157610134565b3661013457005b683602298b8c10b0123060003560e01c63263c69d68190036102195781546001600160a01b03163314610193576040517f363cb31200000000000000000000000000000000000000000000000000000000815260040160405180910390fd5b602036103d60003e6004356024018036103d60003e602081033560051b81018036103d60003e5b80821461020c5781358060601c816001168260a01b60a81c811583028284027fddf252ad1be2c89b69c2b068fc378daa952ba7f163c4a11628f55a4df523b3ef600038a45050508160200191506101ba565b5050600160005260206000f35b80630f4599e5036102f35760018201546001600160a01b0316156102885760018201546001600160a01b03166004356001600160a01b031614610288576040517fc59ec47a00000000000000000000000000000000000000000000000000000000815260040160405180910390fd5b81546001600160a01b0316156102ca576040517fbf656a4600000000000000000000000000000000000000000000000000000000815260040160405180910390fd5b815473ffffffffffffffffffffffffffffffffffffffff19163317825560016000908152602090f35b005b34801561030157600080fd5b50610332610310366004610a8c565b6301ffc9a760e09190911c9081146380ac58cd821417635b5e139f9091141790565b60405190151581526020015b60405180910390f35b34801561035357600080fd5b5061035c61055c565b60405161033e9190610ad5565b34801561037557600080fd5b50610389610384366004610b23565b610572565b6040516001600160a01b03909116815260200161033e565b3480156103ad57600080fd5b506102f36103bc366004610b58565b61058a565b3480156103cd57600080fd5b506103d6610610565b60405190815260200161033e565b3480156103f057600080fd5b506102f36103ff366004610b82565b610622565b34801561041057600080fd5b5061038961041f366004610b23565b6106b1565b6102f3610432366004610b82565b6106c3565b34801561044357600080fd5b50610389610452366004610b23565b6106f5565b34801561046357600080fd5b506102f3610707565b34801561047857600080fd5b506103d6610487366004610bbe565b6107c7565b34801561049857600080fd5b50683602298b8c10b01232546001600160a01b0316610389565b3480156104be57600080fd5b5061035c6107e2565b3480156104d357600080fd5b506103896107f3565b3480156104e857600080fd5b506102f36104f7366004610bd9565b610841565b34801561050857600080fd5b506102f3610517366004610c15565b6108c4565b34801561052857600080fd5b5061035c610537366004610b23565b61091f565b34801561054857600080fd5b50610332610557366004610cb0565b61092f565b606061056d6306fdde03600061095b565b905090565b600061058463081812fc8360006109b8565b92915050565b60006105946107f3565b90508260601b60601c925060405163d10b6e0c600052836020528260405233606052602060006064601c34865af1601f3d11166105d4573d6000823e3d81fd5b806040525060006060528183600c5160601c7f8c5be1e5ebec7d5bd14f71427d1e84f3dd0314c0f7b2291e5b200ac8c7c3b925600038a4505050565b600061056d63e2c792816000806109b8565b600061062c6107f3565b90508360601b60601c93508260601b60601c925060405163e5eb36c881528460208201528360408201528260608201523360808201526020816084601c840134865af1600182511416610682573d6000823e3d81fd5b508183857fddf252ad1be2c89b69c2b068fc378daa952ba7f163c4a11628f55a4df523b3ef600038a450505050565b600061058463243598798360006109b8565b6106ce838383610622565b813b156106f0576106f083838360405180602001604052806000815250610a00565b505050565b6000610584636352211e8360006109b8565b6000806107126107f3565b9050638da5cb5b600052602060006004601c845afa601f3d11161561073a57600c5160601c91505b683602298b8c10b0123254683602298b8c10b01230906001600160a01b0390811690841681146107c15760028201805473ffffffffffffffffffffffffffffffffffffffff19166001600160a01b0386811691821790925560405190918316907f8be0079c531659141344cd1fd0a4f28419497f9722a3daafe3b4186f6b6457e090600090a35b50505050565b600061058463f5b100ea836001600160a01b031660006109b8565b606061056d6395d89b41600061095b565b683602298b8c10b01230546001600160a01b03168061083e576040517f5b2a47ae00000000000000000000000000000000000000000000000000000000815260040160405180910390fd5b90565b600061084b6107f3565b90508260601b60601c925060405163813500fc6000528360205282151560405233606052602060006064601c34865af16001600051141661088f573d6000823e3d81fd5b83337f17307eab39ab6107e8899845ad3d59bd9653f200f220920489ca2b5937696c3160206040a36040525050600060605250565b6108cf858585610622565b833b156109185761091885858585858080601f016020809104026020016040519081016040528093929190818152602001838380828437600092019190915250610a0092505050565b5050505050565b606061058463c87b56dd8361095b565b600061095263e985e9c5846001600160a01b0316846001600160a01b03166109b8565b15159392505050565b606060006109676107f3565b9050604051915083600052826020526000806024601c845afa61098d573d6000833e3d82fd5b60206000803e6020600051833e8151602060005101602084013e815160208301016040525092915050565b6000806109c36107f3565b9050604051856000528460205283604052602060006044601c855afa601f3d11166109f1573d6000823e3d81fd5b60405250506000519392505050565b60405163150b7a028082523360208301528560601b60601c604083015283606083015260808083015282518060a08401528015610a47578060c08401826020870160045afa505b60208360a48301601c860160008a5af1610a6a573d15610a6a573d6000843e3d83fd5b508060e01b825114610a845763d1a57ed66000526004601cfd5b505050505050565b600060208284031215610a9e57600080fd5b81357fffffffff0000000000000000000000000000000000000000000000000000000081168114610ace57600080fd5b9392505050565b600060208083528351808285015260005b81811015610b0257858101830151858201604001528201610ae6565b506000604082860101526040601f19601f8301168501019250505092915050565b600060208284031215610b3557600080fd5b5035919050565b80356001600160a01b0381168114610b5357600080fd5b919050565b60008060408385031215610b6b57600080fd5b610b7483610b3c565b946020939093013593505050565b600080600060608486031215610b9757600080fd5b610ba084610b3c565b9250610bae60208501610b3c565b9150604084013590509250925092565b600060208284031215610bd057600080fd5b610ace82610b3c565b60008060408385031215610bec57600080fd5b610bf583610b3c565b915060208301358015158114610c0a57600080fd5b809150509250929050565b600080600080600060808688031215610c2d57600080fd5b610c3686610b3c565b9450610c4460208701610b3c565b935060408601359250606086013567ffffffffffffffff80821115610c6857600080fd5b818801915088601f830112610c7c57600080fd5b813581811115610c8b57600080fd5b896020828501011115610c9d57600080fd5b9699959850939650602001949392505050565b60008060408385031215610cc357600080fd5b610ccc83610b3c565b9150610cda60208401610b3c565b9050925092905056fea26469706673582212205a8a785cd04310d9a93699d5bb18f17ffc2a2540b55f5fcac1bbe37b53b1b97b64736f6c63430008140033a264697066735822122058340847bb97516141df2dcfd3438d5b3e9e9d788124a0875b552fc1cbe08c7364736f6c63430008140033",
  "linkReferences": {},
  "deployedLinkReferences": {}
}